{
  "_format": "hh-sol-artifact-1",
  "contractName": "DropERC1155",
  "sourceName": "contracts/NFT.sol",
  "abi": [
    {
      "inputs": [],
      "stateMutability": "nonpayable",
      "type": "constructor"
    },
    {
      "inputs": [
        {
          "internalType": "address",
          "name": "operator",
          "type": "address"
        }
      ],
      "name": "OperatorNotAllowed",
      "type": "error"
    },
    {
      "anonymous": false,
      "inputs": [
        {
          "indexed": true,
          "internalType": "address",
          "name": "account",
          "type": "address"
        },
        {
          "indexed": true,
          "internalType": "address",
          "name": "operator",
          "type": "address"
        },
        {
          "indexed": false,
          "internalType": "bool",
          "name": "approved",
          "type": "bool"
        }
      ],
      "name": "ApprovalForAll",
      "type": "event"
    },
    {
      "anonymous": false,
      "inputs": [
        {
          "indexed": true,
          "internalType": "uint256",
          "name": "tokenId",
          "type": "uint256"
        },
        {
          "components": [
            {
              "internalType": "uint256",
              "name": "startTimestamp",
              "type": "uint256"
            },
            {
              "internalType": "uint256",
              "name": "maxClaimableSupply",
              "type": "uint256"
            },
            {
              "internalType": "uint256",
              "name": "supplyClaimed",
              "type": "uint256"
            },
            {
              "internalType": "uint256",
              "name": "quantityLimitPerWallet",
              "type": "uint256"
            },
            {
              "internalType": "bytes32",
              "name": "merkleRoot",
              "type": "bytes32"
            },
            {
              "internalType": "uint256",
              "name": "pricePerToken",
              "type": "uint256"
            },
            {
              "internalType": "address",
              "name": "currency",
              "type": "address"
            },
            {
              "internalType": "string",
              "name": "metadata",
              "type": "string"
            }
          ],
          "indexed": false,
          "internalType": "struct IClaimCondition.ClaimCondition[]",
          "name": "claimConditions",
          "type": "tuple[]"
        },
        {
          "indexed": false,
          "internalType": "bool",
          "name": "resetEligibility",
          "type": "bool"
        }
      ],
      "name": "ClaimConditionsUpdated",
      "type": "event"
    },
    {
      "anonymous": false,
      "inputs": [
        {
          "indexed": false,
          "internalType": "string",
          "name": "prevURI",
          "type": "string"
        },
        {
          "indexed": false,
          "internalType": "string",
          "name": "newURI",
          "type": "string"
        }
      ],
      "name": "ContractURIUpdated",
      "type": "event"
    },
    {
      "anonymous": false,
      "inputs": [
        {
          "indexed": true,
          "internalType": "address",
          "name": "newRoyaltyRecipient",
          "type": "address"
        },
        {
          "indexed": false,
          "internalType": "uint256",
          "name": "newRoyaltyBps",
          "type": "uint256"
        }
      ],
      "name": "DefaultRoyalty",
      "type": "event"
    },
    {
      "anonymous": false,
      "inputs": [
        {
          "indexed": false,
          "internalType": "uint8",
          "name": "version",
          "type": "uint8"
        }
      ],
      "name": "Initialized",
      "type": "event"
    },
    {
      "anonymous": false,
      "inputs": [
        {
          "indexed": false,
          "internalType": "uint256",
          "name": "tokenId",
          "type": "uint256"
        },
        {
          "indexed": false,
          "internalType": "uint256",
          "name": "maxTotalSupply",
          "type": "uint256"
        }
      ],
      "name": "MaxTotalSupplyUpdated",
      "type": "event"
    },
    {
      "anonymous": false,
      "inputs": [
        {
          "indexed": false,
          "internalType": "bool",
          "name": "restriction",
          "type": "bool"
        }
      ],
      "name": "OperatorRestriction",
      "type": "event"
    },
    {
      "anonymous": false,
      "inputs": [
        {
          "indexed": true,
          "internalType": "address",
          "name": "prevOwner",
          "type": "address"
        },
        {
          "indexed": true,
          "internalType": "address",
          "name": "newOwner",
          "type": "address"
        }
      ],
      "name": "OwnerUpdated",
      "type": "event"
    },
    {
      "anonymous": false,
      "inputs": [
        {
          "indexed": true,
          "internalType": "address",
          "name": "platformFeeRecipient",
          "type": "address"
        },
        {
          "indexed": false,
          "internalType": "uint256",
          "name": "platformFeeBps",
          "type": "uint256"
        }
      ],
      "name": "PlatformFeeInfoUpdated",
      "type": "event"
    },
    {
      "anonymous": false,
      "inputs": [
        {
          "indexed": true,
          "internalType": "address",
          "name": "recipient",
          "type": "address"
        }
      ],
      "name": "PrimarySaleRecipientUpdated",
      "type": "event"
    },
    {
      "anonymous": false,
      "inputs": [
        {
          "indexed": true,
          "internalType": "bytes32",
          "name": "role",
          "type": "bytes32"
        },
        {
          "indexed": true,
          "internalType": "bytes32",
          "name": "previousAdminRole",
          "type": "bytes32"
        },
        {
          "indexed": true,
          "internalType": "bytes32",
          "name": "newAdminRole",
          "type": "bytes32"
        }
      ],
      "name": "RoleAdminChanged",
      "type": "event"
    },
    {
      "anonymous": false,
      "inputs": [
        {
          "indexed": true,
          "internalType": "bytes32",
          "name": "role",
          "type": "bytes32"
        },
        {
          "indexed": true,
          "internalType": "address",
          "name": "account",
          "type": "address"
        },
        {
          "indexed": true,
          "internalType": "address",
          "name": "sender",
          "type": "address"
        }
      ],
      "name": "RoleGranted",
      "type": "event"
    },
    {
      "anonymous": false,
      "inputs": [
        {
          "indexed": true,
          "internalType": "bytes32",
          "name": "role",
          "type": "bytes32"
        },
        {
          "indexed": true,
          "internalType": "address",
          "name": "account",
          "type": "address"
        },
        {
          "indexed": true,
          "internalType": "address",
          "name": "sender",
          "type": "address"
        }
      ],
      "name": "RoleRevoked",
      "type": "event"
    },
    {
      "anonymous": false,
      "inputs": [
        {
          "indexed": true,
          "internalType": "uint256",
          "name": "tokenId",
          "type": "uint256"
        },
        {
          "indexed": true,
          "internalType": "address",
          "name": "royaltyRecipient",
          "type": "address"
        },
        {
          "indexed": false,
          "internalType": "uint256",
          "name": "royaltyBps",
          "type": "uint256"
        }
      ],
      "name": "RoyaltyForToken",
      "type": "event"
    },
    {
      "anonymous": false,
      "inputs": [
        {
          "indexed": true,
          "internalType": "uint256",
          "name": "tokenId",
          "type": "uint256"
        },
        {
          "indexed": false,
          "internalType": "address",
          "name": "saleRecipient",
          "type": "address"
        }
      ],
      "name": "SaleRecipientForTokenUpdated",
      "type": "event"
    },
    {
      "anonymous": false,
      "inputs": [
        {
          "indexed": true,
          "internalType": "uint256",
          "name": "claimConditionIndex",
          "type": "uint256"
        },
        {
          "indexed": true,
          "internalType": "address",
          "name": "claimer",
          "type": "address"
        },
        {
          "indexed": true,
          "internalType": "address",
          "name": "receiver",
          "type": "address"
        },
        {
          "indexed": false,
          "internalType": "uint256",
          "name": "tokenId",
          "type": "uint256"
        },
        {
          "indexed": false,
          "internalType": "uint256",
          "name": "quantityClaimed",
          "type": "uint256"
        }
      ],
      "name": "TokensClaimed",
      "type": "event"
    },
    {
      "anonymous": false,
      "inputs": [
        {
          "indexed": true,
          "internalType": "uint256",
          "name": "startTokenId",
          "type": "uint256"
        },
        {
          "indexed": false,
          "internalType": "uint256",
          "name": "endTokenId",
          "type": "uint256"
        },
        {
          "indexed": false,
          "internalType": "string",
          "name": "baseURI",
          "type": "string"
        },
        {
          "indexed": false,
          "internalType": "bytes",
          "name": "encryptedBaseURI",
          "type": "bytes"
        }
      ],
      "name": "TokensLazyMinted",
      "type": "event"
    },
    {
      "anonymous": false,
      "inputs": [
        {
          "indexed": true,
          "internalType": "address",
          "name": "operator",
          "type": "address"
        },
        {
          "indexed": true,
          "internalType": "address",
          "name": "from",
          "type": "address"
        },
        {
          "indexed": true,
          "internalType": "address",
          "name": "to",
          "type": "address"
        },
        {
          "indexed": false,
          "internalType": "uint256[]",
          "name": "ids",
          "type": "uint256[]"
        },
        {
          "indexed": false,
          "internalType": "uint256[]",
          "name": "values",
          "type": "uint256[]"
        }
      ],
      "name": "TransferBatch",
      "type": "event"
    },
    {
      "anonymous": false,
      "inputs": [
        {
          "indexed": true,
          "internalType": "address",
          "name": "operator",
          "type": "address"
        },
        {
          "indexed": true,
          "internalType": "address",
          "name": "from",
          "type": "address"
        },
        {
          "indexed": true,
          "internalType": "address",
          "name": "to",
          "type": "address"
        },
        {
          "indexed": false,
          "internalType": "uint256",
          "name": "id",
          "type": "uint256"
        },
        {
          "indexed": false,
          "internalType": "uint256",
          "name": "value",
          "type": "uint256"
        }
      ],
      "name": "TransferSingle",
      "type": "event"
    },
    {
      "anonymous": false,
      "inputs": [
        {
          "indexed": false,
          "internalType": "string",
          "name": "value",
          "type": "string"
        },
        {
          "indexed": true,
          "internalType": "uint256",
          "name": "id",
          "type": "uint256"
        }
      ],
      "name": "URI",
      "type": "event"
    },
    {
      "inputs": [],
      "name": "DEFAULT_ADMIN_ROLE",
      "outputs": [
        {
          "internalType": "bytes32",
          "name": "",
          "type": "bytes32"
        }
      ],
      "stateMutability": "view",
      "type": "function"
    },
    {
      "inputs": [
        {
          "internalType": "address",
          "name": "account",
          "type": "address"
        },
        {
          "internalType": "uint256",
          "name": "id",
          "type": "uint256"
        }
      ],
      "name": "balanceOf",
      "outputs": [
        {
          "internalType": "uint256",
          "name": "",
          "type": "uint256"
        }
      ],
      "stateMutability": "view",
      "type": "function"
    },
    {
      "inputs": [
        {
          "internalType": "address[]",
          "name": "accounts",
          "type": "address[]"
        },
        {
          "internalType": "uint256[]",
          "name": "ids",
          "type": "uint256[]"
        }
      ],
      "name": "balanceOfBatch",
      "outputs": [
        {
          "internalType": "uint256[]",
          "name": "",
          "type": "uint256[]"
        }
      ],
      "stateMutability": "view",
      "type": "function"
    },
    {
      "inputs": [
        {
          "internalType": "address",
          "name": "account",
          "type": "address"
        },
        {
          "internalType": "uint256[]",
          "name": "ids",
          "type": "uint256[]"
        },
        {
          "internalType": "uint256[]",
          "name": "values",
          "type": "uint256[]"
        }
      ],
      "name": "burnBatch",
      "outputs": [],
      "stateMutability": "nonpayable",
      "type": "function"
    },
    {
      "inputs": [
        {
          "internalType": "address",
          "name": "_receiver",
          "type": "address"
        },
        {
          "internalType": "uint256",
          "name": "_tokenId",
          "type": "uint256"
        },
        {
          "internalType": "uint256",
          "name": "_quantity",
          "type": "uint256"
        },
        {
          "internalType": "address",
          "name": "_currency",
          "type": "address"
        },
        {
          "internalType": "uint256",
          "name": "_pricePerToken",
          "type": "uint256"
        },
        {
          "components": [
            {
              "internalType": "bytes32[]",
              "name": "proof",
              "type": "bytes32[]"
            },
            {
              "internalType": "uint256",
              "name": "quantityLimitPerWallet",
              "type": "uint256"
            },
            {
              "internalType": "uint256",
              "name": "pricePerToken",
              "type": "uint256"
            },
            {
              "internalType": "address",
              "name": "currency",
              "type": "address"
            }
          ],
          "internalType": "struct IDrop1155.AllowlistProof",
          "name": "_allowlistProof",
          "type": "tuple"
        },
        {
          "internalType": "bytes",
          "name": "_data",
          "type": "bytes"
        }
      ],
      "name": "claim",
      "outputs": [],
      "stateMutability": "payable",
      "type": "function"
    },
    {
      "inputs": [
        {
          "internalType": "uint256",
          "name": "",
          "type": "uint256"
        }
      ],
      "name": "claimCondition",
      "outputs": [
        {
          "internalType": "uint256",
          "name": "currentStartId",
          "type": "uint256"
        },
        {
          "internalType": "uint256",
          "name": "count",
          "type": "uint256"
        }
      ],
      "stateMutability": "view",
      "type": "function"
    },
    {
      "inputs": [],
      "name": "contractType",
      "outputs": [
        {
          "internalType": "bytes32",
          "name": "",
          "type": "bytes32"
        }
      ],
      "stateMutability": "pure",
      "type": "function"
    },
    {
      "inputs": [],
      "name": "contractURI",
      "outputs": [
        {
          "internalType": "string",
          "name": "",
          "type": "string"
        }
      ],
      "stateMutability": "view",
      "type": "function"
    },
    {
      "inputs": [],
      "name": "contractVersion",
      "outputs": [
        {
          "internalType": "uint8",
          "name": "",
          "type": "uint8"
        }
      ],
      "stateMutability": "pure",
      "type": "function"
    },
    {
      "inputs": [
        {
          "internalType": "uint256",
          "name": "_tokenId",
          "type": "uint256"
        }
      ],
      "name": "getActiveClaimConditionId",
      "outputs": [
        {
          "internalType": "uint256",
          "name": "",
          "type": "uint256"
        }
      ],
      "stateMutability": "view",
      "type": "function"
    },
    {
      "inputs": [],
      "name": "getBaseURICount",
      "outputs": [
        {
          "internalType": "uint256",
          "name": "",
          "type": "uint256"
        }
      ],
      "stateMutability": "view",
      "type": "function"
    },
    {
      "inputs": [
        {
          "internalType": "uint256",
          "name": "_index",
          "type": "uint256"
        }
      ],
      "name": "getBatchIdAtIndex",
      "outputs": [
        {
          "internalType": "uint256",
          "name": "",
          "type": "uint256"
        }
      ],
      "stateMutability": "view",
      "type": "function"
    },
    {
      "inputs": [
        {
          "internalType": "uint256",
          "name": "_tokenId",
          "type": "uint256"
        },
        {
          "internalType": "uint256",
          "name": "_conditionId",
          "type": "uint256"
        }
      ],
      "name": "getClaimConditionById",
      "outputs": [
        {
          "components": [
            {
              "internalType": "uint256",
              "name": "startTimestamp",
              "type": "uint256"
            },
            {
              "internalType": "uint256",
              "name": "maxClaimableSupply",
              "type": "uint256"
            },
            {
              "internalType": "uint256",
              "name": "supplyClaimed",
              "type": "uint256"
            },
            {
              "internalType": "uint256",
              "name": "quantityLimitPerWallet",
              "type": "uint256"
            },
            {
              "internalType": "bytes32",
              "name": "merkleRoot",
              "type": "bytes32"
            },
            {
              "internalType": "uint256",
              "name": "pricePerToken",
              "type": "uint256"
            },
            {
              "internalType": "address",
              "name": "currency",
              "type": "address"
            },
            {
              "internalType": "string",
              "name": "metadata",
              "type": "string"
            }
          ],
          "internalType": "struct IClaimCondition.ClaimCondition",
          "name": "condition",
          "type": "tuple"
        }
      ],
      "stateMutability": "view",
      "type": "function"
    },
    {
      "inputs": [],
      "name": "getDefaultRoyaltyInfo",
      "outputs": [
        {
          "internalType": "address",
          "name": "",
          "type": "address"
        },
        {
          "internalType": "uint16",
          "name": "",
          "type": "uint16"
        }
      ],
      "stateMutability": "view",
      "type": "function"
    },
    {
      "inputs": [],
      "name": "getPlatformFeeInfo",
      "outputs": [
        {
          "internalType": "address",
          "name": "",
          "type": "address"
        },
        {
          "internalType": "uint16",
          "name": "",
          "type": "uint16"
        }
      ],
      "stateMutability": "view",
      "type": "function"
    },
    {
      "inputs": [
        {
          "internalType": "bytes32",
          "name": "role",
          "type": "bytes32"
        }
      ],
      "name": "getRoleAdmin",
      "outputs": [
        {
          "internalType": "bytes32",
          "name": "",
          "type": "bytes32"
        }
      ],
      "stateMutability": "view",
      "type": "function"
    },
    {
      "inputs": [
        {
          "internalType": "bytes32",
          "name": "role",
          "type": "bytes32"
        },
        {
          "internalType": "uint256",
          "name": "index",
          "type": "uint256"
        }
      ],
      "name": "getRoleMember",
      "outputs": [
        {
          "internalType": "address",
          "name": "member",
          "type": "address"
        }
      ],
      "stateMutability": "view",
      "type": "function"
    },
    {
      "inputs": [
        {
          "internalType": "bytes32",
          "name": "role",
          "type": "bytes32"
        }
      ],
      "name": "getRoleMemberCount",
      "outputs": [
        {
          "internalType": "uint256",
          "name": "count",
          "type": "uint256"
        }
      ],
      "stateMutability": "view",
      "type": "function"
    },
    {
      "inputs": [
        {
          "internalType": "uint256",
          "name": "_tokenId",
          "type": "uint256"
        }
      ],
      "name": "getRoyaltyInfoForToken",
      "outputs": [
        {
          "internalType": "address",
          "name": "",
          "type": "address"
        },
        {
          "internalType": "uint16",
          "name": "",
          "type": "uint16"
        }
      ],
      "stateMutability": "view",
      "type": "function"
    },
    {
      "inputs": [
        {
          "internalType": "uint256",
          "name": "_tokenId",
          "type": "uint256"
        },
        {
          "internalType": "uint256",
          "name": "_conditionId",
          "type": "uint256"
        },
        {
          "internalType": "address",
          "name": "_claimer",
          "type": "address"
        }
      ],
      "name": "getSupplyClaimedByWallet",
      "outputs": [
        {
          "internalType": "uint256",
          "name": "supplyClaimedByWallet",
          "type": "uint256"
        }
      ],
      "stateMutability": "view",
      "type": "function"
    },
    {
      "inputs": [
        {
          "internalType": "bytes32",
          "name": "role",
          "type": "bytes32"
        },
        {
          "internalType": "address",
          "name": "account",
          "type": "address"
        }
      ],
      "name": "grantRole",
      "outputs": [],
      "stateMutability": "nonpayable",
      "type": "function"
    },
    {
      "inputs": [
        {
          "internalType": "bytes32",
          "name": "role",
          "type": "bytes32"
        },
        {
          "internalType": "address",
          "name": "account",
          "type": "address"
        }
      ],
      "name": "hasRole",
      "outputs": [
        {
          "internalType": "bool",
          "name": "",
          "type": "bool"
        }
      ],
      "stateMutability": "view",
      "type": "function"
    },
    {
      "inputs": [
        {
          "internalType": "bytes32",
          "name": "role",
          "type": "bytes32"
        },
        {
          "internalType": "address",
          "name": "account",
          "type": "address"
        }
      ],
      "name": "hasRoleWithSwitch",
      "outputs": [
        {
          "internalType": "bool",
          "name": "",
          "type": "bool"
        }
      ],
      "stateMutability": "view",
      "type": "function"
    },
    {
      "inputs": [
        {
          "internalType": "address",
          "name": "_defaultAdmin",
          "type": "address"
        },
        {
          "internalType": "string",
          "name": "_name",
          "type": "string"
        },
        {
          "internalType": "string",
          "name": "_symbol",
          "type": "string"
        },
        {
          "internalType": "string",
          "name": "_contractURI",
          "type": "string"
        },
        {
          "internalType": "address[]",
          "name": "_trustedForwarders",
          "type": "address[]"
        },
        {
          "internalType": "address",
          "name": "_saleRecipient",
          "type": "address"
        },
        {
          "internalType": "address",
          "name": "_royaltyRecipient",
          "type": "address"
        },
        {
          "internalType": "uint128",
          "name": "_royaltyBps",
          "type": "uint128"
        },
        {
          "internalType": "uint128",
          "name": "_platformFeeBps",
          "type": "uint128"
        },
        {
          "internalType": "address",
          "name": "_platformFeeRecipient",
          "type": "address"
        }
      ],
      "name": "initialize",
      "outputs": [],
      "stateMutability": "nonpayable",
      "type": "function"
    },
    {
      "inputs": [
        {
          "internalType": "address",
          "name": "account",
          "type": "address"
        },
        {
          "internalType": "address",
          "name": "operator",
          "type": "address"
        }
      ],
      "name": "isApprovedForAll",
      "outputs": [
        {
          "internalType": "bool",
          "name": "",
          "type": "bool"
        }
      ],
      "stateMutability": "view",
      "type": "function"
    },
    {
      "inputs": [
        {
          "internalType": "address",
          "name": "forwarder",
          "type": "address"
        }
      ],
      "name": "isTrustedForwarder",
      "outputs": [
        {
          "internalType": "bool",
          "name": "",
          "type": "bool"
        }
      ],
      "stateMutability": "view",
      "type": "function"
    },
    {
      "inputs": [
        {
          "internalType": "uint256",
          "name": "_amount",
          "type": "uint256"
        },
        {
          "internalType": "string",
          "name": "_baseURIForTokens",
          "type": "string"
        },
        {
          "internalType": "bytes",
          "name": "_data",
          "type": "bytes"
        }
      ],
      "name": "lazyMint",
      "outputs": [
        {
          "internalType": "uint256",
          "name": "batchId",
          "type": "uint256"
        }
      ],
      "stateMutability": "nonpayable",
      "type": "function"
    },
    {
      "inputs": [
        {
          "internalType": "uint256",
          "name": "",
          "type": "uint256"
        }
      ],
      "name": "maxTotalSupply",
      "outputs": [
        {
          "internalType": "uint256",
          "name": "",
          "type": "uint256"
        }
      ],
      "stateMutability": "view",
      "type": "function"
    },
    {
      "inputs": [
        {
          "internalType": "bytes[]",
          "name": "data",
          "type": "bytes[]"
        }
      ],
      "name": "multicall",
      "outputs": [
        {
          "internalType": "bytes[]",
          "name": "results",
          "type": "bytes[]"
        }
      ],
      "stateMutability": "nonpayable",
      "type": "function"
    },
    {
      "inputs": [],
      "name": "name",
      "outputs": [
        {
          "internalType": "string",
          "name": "",
          "type": "string"
        }
      ],
      "stateMutability": "view",
      "type": "function"
    },
    {
      "inputs": [],
      "name": "nextTokenIdToMint",
      "outputs": [
        {
          "internalType": "uint256",
          "name": "",
          "type": "uint256"
        }
      ],
      "stateMutability": "view",
      "type": "function"
    },
    {
      "inputs": [],
      "name": "operatorRestriction",
      "outputs": [
        {
          "internalType": "bool",
          "name": "",
          "type": "bool"
        }
      ],
      "stateMutability": "view",
      "type": "function"
    },
    {
      "inputs": [],
      "name": "owner",
      "outputs": [
        {
          "internalType": "address",
          "name": "",
          "type": "address"
        }
      ],
      "stateMutability": "view",
      "type": "function"
    },
    {
      "inputs": [],
      "name": "primarySaleRecipient",
      "outputs": [
        {
          "internalType": "address",
          "name": "",
          "type": "address"
        }
      ],
      "stateMutability": "view",
      "type": "function"
    },
    {
      "inputs": [
        {
          "internalType": "bytes32",
          "name": "role",
          "type": "bytes32"
        },
        {
          "internalType": "address",
          "name": "account",
          "type": "address"
        }
      ],
      "name": "renounceRole",
      "outputs": [],
      "stateMutability": "nonpayable",
      "type": "function"
    },
    {
      "inputs": [
        {
          "internalType": "bytes32",
          "name": "role",
          "type": "bytes32"
        },
        {
          "internalType": "address",
          "name": "account",
          "type": "address"
        }
      ],
      "name": "revokeRole",
      "outputs": [],
      "stateMutability": "nonpayable",
      "type": "function"
    },
    {
      "inputs": [
        {
          "internalType": "uint256",
          "name": "tokenId",
          "type": "uint256"
        },
        {
          "internalType": "uint256",
          "name": "salePrice",
          "type": "uint256"
        }
      ],
      "name": "royaltyInfo",
      "outputs": [
        {
          "internalType": "address",
          "name": "receiver",
          "type": "address"
        },
        {
          "internalType": "uint256",
          "name": "royaltyAmount",
          "type": "uint256"
        }
      ],
      "stateMutability": "view",
      "type": "function"
    },
    {
      "inputs": [
        {
          "internalType": "address",
          "name": "from",
          "type": "address"
        },
        {
          "internalType": "address",
          "name": "to",
          "type": "address"
        },
        {
          "internalType": "uint256[]",
          "name": "ids",
          "type": "uint256[]"
        },
        {
          "internalType": "uint256[]",
          "name": "amounts",
          "type": "uint256[]"
        },
        {
          "internalType": "bytes",
          "name": "data",
          "type": "bytes"
        }
      ],
      "name": "safeBatchTransferFrom",
      "outputs": [],
      "stateMutability": "nonpayable",
      "type": "function"
    },
    {
      "inputs": [
        {
          "internalType": "address",
          "name": "from",
          "type": "address"
        },
        {
          "internalType": "address",
          "name": "to",
          "type": "address"
        },
        {
          "internalType": "uint256",
          "name": "id",
          "type": "uint256"
        },
        {
          "internalType": "uint256",
          "name": "amount",
          "type": "uint256"
        },
        {
          "internalType": "bytes",
          "name": "data",
          "type": "bytes"
        }
      ],
      "name": "safeTransferFrom",
      "outputs": [],
      "stateMutability": "nonpayable",
      "type": "function"
    },
    {
      "inputs": [
        {
          "internalType": "uint256",
          "name": "",
          "type": "uint256"
        }
      ],
      "name": "saleRecipient",
      "outputs": [
        {
          "internalType": "address",
          "name": "",
          "type": "address"
        }
      ],
      "stateMutability": "view",
      "type": "function"
    },
    {
      "inputs": [
        {
          "internalType": "address",
          "name": "operator",
          "type": "address"
        },
        {
          "internalType": "bool",
          "name": "approved",
          "type": "bool"
        }
      ],
      "name": "setApprovalForAll",
      "outputs": [],
      "stateMutability": "nonpayable",
      "type": "function"
    },
    {
      "inputs": [
        {
          "internalType": "uint256",
          "name": "_tokenId",
          "type": "uint256"
        },
        {
          "components": [
            {
              "internalType": "uint256",
              "name": "startTimestamp",
              "type": "uint256"
            },
            {
              "internalType": "uint256",
              "name": "maxClaimableSupply",
              "type": "uint256"
            },
            {
              "internalType": "uint256",
              "name": "supplyClaimed",
              "type": "uint256"
            },
            {
              "internalType": "uint256",
              "name": "quantityLimitPerWallet",
              "type": "uint256"
            },
            {
              "internalType": "bytes32",
              "name": "merkleRoot",
              "type": "bytes32"
            },
            {
              "internalType": "uint256",
              "name": "pricePerToken",
              "type": "uint256"
            },
            {
              "internalType": "address",
              "name": "currency",
              "type": "address"
            },
            {
              "internalType": "string",
              "name": "metadata",
              "type": "string"
            }
          ],
          "internalType": "struct IClaimCondition.ClaimCondition[]",
          "name": "_conditions",
          "type": "tuple[]"
        },
        {
          "internalType": "bool",
          "name": "_resetClaimEligibility",
          "type": "bool"
        }
      ],
      "name": "setClaimConditions",
      "outputs": [],
      "stateMutability": "nonpayable",
      "type": "function"
    },
    {
      "inputs": [
        {
          "internalType": "string",
          "name": "_uri",
          "type": "string"
        }
      ],
      "name": "setContractURI",
      "outputs": [],
      "stateMutability": "nonpayable",
      "type": "function"
    },
    {
      "inputs": [
        {
          "internalType": "address",
          "name": "_royaltyRecipient",
          "type": "address"
        },
        {
          "internalType": "uint256",
          "name": "_royaltyBps",
          "type": "uint256"
        }
      ],
      "name": "setDefaultRoyaltyInfo",
      "outputs": [],
      "stateMutability": "nonpayable",
      "type": "function"
    },
    {
      "inputs": [
        {
          "internalType": "uint256",
          "name": "_tokenId",
          "type": "uint256"
        },
        {
          "internalType": "uint256",
          "name": "_maxTotalSupply",
          "type": "uint256"
        }
      ],
      "name": "setMaxTotalSupply",
      "outputs": [],
      "stateMutability": "nonpayable",
      "type": "function"
    },
    {
      "inputs": [
        {
          "internalType": "bool",
          "name": "_restriction",
          "type": "bool"
        }
      ],
      "name": "setOperatorRestriction",
      "outputs": [],
      "stateMutability": "nonpayable",
      "type": "function"
    },
    {
      "inputs": [
        {
          "internalType": "address",
          "name": "_newOwner",
          "type": "address"
        }
      ],
      "name": "setOwner",
      "outputs": [],
      "stateMutability": "nonpayable",
      "type": "function"
    },
    {
      "inputs": [
        {
          "internalType": "address",
          "name": "_platformFeeRecipient",
          "type": "address"
        },
        {
          "internalType": "uint256",
          "name": "_platformFeeBps",
          "type": "uint256"
        }
      ],
      "name": "setPlatformFeeInfo",
      "outputs": [],
      "stateMutability": "nonpayable",
      "type": "function"
    },
    {
      "inputs": [
        {
          "internalType": "address",
          "name": "_saleRecipient",
          "type": "address"
        }
      ],
      "name": "setPrimarySaleRecipient",
      "outputs": [],
      "stateMutability": "nonpayable",
      "type": "function"
    },
    {
      "inputs": [
        {
          "internalType": "uint256",
          "name": "_tokenId",
          "type": "uint256"
        },
        {
          "internalType": "address",
          "name": "_recipient",
          "type": "address"
        },
        {
          "internalType": "uint256",
          "name": "_bps",
          "type": "uint256"
        }
      ],
      "name": "setRoyaltyInfoForToken",
      "outputs": [],
      "stateMutability": "nonpayable",
      "type": "function"
    },
    {
      "inputs": [
        {
          "internalType": "uint256",
          "name": "_tokenId",
          "type": "uint256"
        },
        {
          "internalType": "address",
          "name": "_saleRecipient",
          "type": "address"
        }
      ],
      "name": "setSaleRecipientForToken",
      "outputs": [],
      "stateMutability": "nonpayable",
      "type": "function"
    },
    {
      "inputs": [
        {
          "internalType": "bytes4",
          "name": "interfaceId",
          "type": "bytes4"
        }
      ],
      "name": "supportsInterface",
      "outputs": [
        {
          "internalType": "bool",
          "name": "",
          "type": "bool"
        }
      ],
      "stateMutability": "view",
      "type": "function"
    },
    {
      "inputs": [],
      "name": "symbol",
      "outputs": [
        {
          "internalType": "string",
          "name": "",
          "type": "string"
        }
      ],
      "stateMutability": "view",
      "type": "function"
    },
    {
      "inputs": [
        {
          "internalType": "uint256",
          "name": "",
          "type": "uint256"
        }
      ],
      "name": "totalSupply",
      "outputs": [
        {
          "internalType": "uint256",
          "name": "",
          "type": "uint256"
        }
      ],
      "stateMutability": "view",
      "type": "function"
    },
    {
      "inputs": [
        {
          "internalType": "uint256",
          "name": "_tokenId",
          "type": "uint256"
        }
      ],
      "name": "uri",
      "outputs": [
        {
          "internalType": "string",
          "name": "",
          "type": "string"
        }
      ],
      "stateMutability": "view",
      "type": "function"
    },
    {
      "inputs": [
        {
          "internalType": "uint256",
          "name": "_conditionId",
          "type": "uint256"
        },
        {
          "internalType": "address",
          "name": "_claimer",
          "type": "address"
        },
        {
          "internalType": "uint256",
          "name": "_tokenId",
          "type": "uint256"
        },
        {
          "internalType": "uint256",
          "name": "_quantity",
          "type": "uint256"
        },
        {
          "internalType": "address",
          "name": "_currency",
          "type": "address"
        },
        {
          "internalType": "uint256",
          "name": "_pricePerToken",
          "type": "uint256"
        },
        {
          "components": [
            {
              "internalType": "bytes32[]",
              "name": "proof",
              "type": "bytes32[]"
            },
            {
              "internalType": "uint256",
              "name": "quantityLimitPerWallet",
              "type": "uint256"
            },
            {
              "internalType": "uint256",
              "name": "pricePerToken",
              "type": "uint256"
            },
            {
              "internalType": "address",
              "name": "currency",
              "type": "address"
            }
          ],
          "internalType": "struct IDrop1155.AllowlistProof",
          "name": "_allowlistProof",
          "type": "tuple"
        }
      ],
      "name": "verifyClaim",
      "outputs": [
        {
          "internalType": "bool",
          "name": "isOverride",
          "type": "bool"
        }
      ],
      "stateMutability": "view",
      "type": "function"
    }
  ],
  "bytecode": "0x60806040523480156200001157600080fd5b50600054610100900460ff1615808015620000335750600054600160ff909116105b8062000063575062000050306200013d60201b6200271a1760201c565b15801562000063575060005460ff166001145b620000cb5760405162461bcd60e51b815260206004820152602e60248201527f496e697469616c697a61626c653a20636f6e747261637420697320616c72656160448201526d191e481a5b9a5d1a585b1a5e995960921b606482015260840160405180910390fd5b6000805460ff191660011790558015620000ef576000805461ff0019166101001790555b801562000136576000805461ff0019169055604051600181527f7f26b83ff96e1f2b6a682f133852f6798a09c465da95921460cefb38474024989060200160405180910390a15b506200014c565b6001600160a01b03163b151590565b615eae806200015c6000396000f3fe60806040526004361061036a5760003560e01c80636f4f2837116101c6578063bd85b039116100f7578063d547741f11610095578063e9703d251161006f578063e9703d2514610add578063e985e9c514610b26578063ea1def9c14610b6f578063f242432a14610b8f57600080fd5b8063d547741f14610a88578063e159163414610aa8578063e8a3d48514610ac857600080fd5b8063cb2ef6f7116100d1578063cb2ef6f7146109ef578063d37c353b14610a10578063d45573f614610a30578063d45b28d714610a5b57600080fd5b8063bd85b0391461096a578063c7337d6b14610998578063ca15c873146109cf57600080fd5b80639bcf7a1511610164578063a22cb4651161013e578063a22cb465146108d2578063a32fa5b3146108f2578063ac9650d814610912578063b24f2d391461093f57600080fd5b80639bcf7a1514610881578063a0a8e460146108a1578063a217fddf146108bd57600080fd5b80639010d07c116101a05780639010d07c1461080c57806391d148541461082c578063938e3d7b1461084c57806395d89b411461086c57600080fd5b80636f4f2837146107ae57806387198cf2146107ce5780638da5cb5b146107ee57600080fd5b80632f2ff15d116102a0578063572b6c051161023e5780635ab063e8116102185780635ab063e814610739578063600dd5ea1461075957806363b45e2d146107795780636b20c4541461078e57600080fd5b8063572b6c05146106a057806357bc3d78146106d95780635811ddab146106ec57600080fd5b80633b1475a71161027a5780633b1475a7146106025780634cc157df146106175780634e1273f414610659578063504c6e011461068657600080fd5b80632f2ff15d146105a257806332f0cd64146105c257806336568abe146105e257600080fd5b80631e7ac4881161030d57806324aaffaa116102e757806324aaffaa146104f557806329c49b9b146105235780632a55205a146105435780632eb2c2d61461058257600080fd5b80631e7ac488146104885780632419f51b146104a8578063248a9ca3146104c857600080fd5b8063079fe40e11610349578063079fe40e146103f45780630e89341c1461042657806313af403514610446578063183718d11461046857600080fd5b8062fdd58e1461036f57806301ffc9a7146103a257806306fdde03146103d2575b600080fd5b34801561037b57600080fd5b5061038f61038a366004614942565b610baf565b6040519081526020015b60405180910390f35b3480156103ae57600080fd5b506103c26103bd366004614984565b610c4a565b6040519015158152602001610399565b3480156103de57600080fd5b506103e7610c72565b60405161039991906149f1565b34801561040057600080fd5b506005546001600160a01b03165b6040516001600160a01b039091168152602001610399565b34801561043257600080fd5b506103e7610441366004614a04565b610d01565b34801561045257600080fd5b50610466610461366004614a1d565b610d42565b005b34801561047457600080fd5b50610466610483366004614a93565b610d72565b34801561049457600080fd5b506104666104a3366004614942565b6110d2565b3480156104b457600080fd5b5061038f6104c3366004614a04565b611104565b3480156104d457600080fd5b5061038f6104e3366004614a04565b6000908152600b602052604090205490565b34801561050157600080fd5b5061038f610510366004614a04565b61010e6020526000908152604090205481565b34801561052f57600080fd5b5061046661053e366004614af1565b611172565b34801561054f57600080fd5b5061056361055e366004614b21565b6111e4565b604080516001600160a01b039093168352602083019190915201610399565b34801561058e57600080fd5b5061046661059d366004614c8c565b611221565b3480156105ae57600080fd5b506104666105bd366004614af1565b61130c565b3480156105ce57600080fd5b506104666105dd366004614d39565b6113a2565b3480156105ee57600080fd5b506104666105fd366004614af1565b611413565b34801561060e57600080fd5b5060095461038f565b34801561062357600080fd5b50610637610632366004614a04565b611475565b604080516001600160a01b03909316835261ffff909116602083015201610399565b34801561066557600080fd5b50610679610674366004614dc5565b6114e0565b6040516103999190614e63565b34801561069257600080fd5b5060a4546103c29060ff1681565b3480156106ac57600080fd5b506103c26106bb366004614a1d565b6001600160a01b031660009081526040602081905290205460ff1690565b6104666106e7366004614e88565b611609565b3480156106f857600080fd5b5061038f610707366004614f2d565b6000928352600d60209081526040808520938552600390930181528284206001600160a01b0390921684525290205490565b34801561074557600080fd5b5061038f610754366004614a04565b61174c565b34801561076557600080fd5b50610466610774366004614942565b6117fd565b34801561078557600080fd5b5060075461038f565b34801561079a57600080fd5b506104666107a9366004614f66565b61182b565b3480156107ba57600080fd5b506104666107c9366004614a1d565b6118c8565b3480156107da57600080fd5b506104666107e9366004614b21565b6118f5565b3480156107fa57600080fd5b506006546001600160a01b031661040e565b34801561081857600080fd5b5061040e610827366004614b21565b611952565b34801561083857600080fd5b506103c2610847366004614af1565b611a40565b34801561085857600080fd5b50610466610867366004614fdb565b611a6b565b34801561087857600080fd5b506103e7611a98565b34801561088d57600080fd5b5061046661089c36600461500f565b611aa6565b3480156108ad57600080fd5b5060405160048152602001610399565b3480156108c957600080fd5b5061038f600081565b3480156108de57600080fd5b506104666108ed366004615047565b611ad5565b3480156108fe57600080fd5b506103c261090d366004614af1565b611ba5565b34801561091e57600080fd5b5061093261092d366004615075565b611bfb565b60405161039991906150b6565b34801561094b57600080fd5b506003546001600160a01b03811690600160a01b900461ffff16610637565b34801561097657600080fd5b5061038f610985366004614a04565b61010d6020526000908152604090205481565b3480156109a457600080fd5b5061040e6109b3366004614a04565b61010f602052600090815260409020546001600160a01b031681565b3480156109db57600080fd5b5061038f6109ea366004614a04565b611cef565b3480156109fb57600080fd5b506a44726f704552433131353560a81b61038f565b348015610a1c57600080fd5b5061038f610a2b366004615159565b611d78565b348015610a3c57600080fd5b506002546001600160a01b03811690600160a01b900461ffff16610637565b348015610a6757600080fd5b50610a7b610a76366004614b21565b611e85565b60405161039991906151d2565b348015610a9457600080fd5b50610466610aa3366004614af1565b611fec565b348015610ab457600080fd5b50610466610ac3366004615256565b612005565b348015610ad457600080fd5b506103e7612222565b348015610ae957600080fd5b50610b11610af8366004614a04565b600d602052600090815260409020805460019091015482565b60408051928352602083019190915201610399565b348015610b3257600080fd5b506103c2610b41366004615368565b6001600160a01b03918216600090815260d86020908152604080832093909416825291909152205460ff1690565b348015610b7b57600080fd5b506103c2610b8a366004615396565b61222f565b348015610b9b57600080fd5b50610466610baa36600461540f565b61263c565b60006001600160a01b038316610c1f5760405162461bcd60e51b815260206004820152602a60248201527f455243313135353a2061646472657373207a65726f206973206e6f742061207660448201526930b634b21037bbb732b960b11b60648201526084015b60405180910390fd5b50600081815260d7602090815260408083206001600160a01b03861684529091529020545b92915050565b6000610c5582612729565b80610c445750506001600160e01b03191663152a902d60e11b1490565b6101098054610c8090615477565b80601f0160208091040260200160405190810160405280929190818152602001828054610cac90615477565b8015610cf95780601f10610cce57610100808354040283529160200191610cf9565b820191906000526020600020905b815481529060010190602001808311610cdc57829003601f168201915b505050505081565b60606000610d0e83612779565b905080610d1a84612915565b604051602001610d2b9291906154ab565b604051602081830303815290604052915050919050565b610d4a6129a7565b610d665760405162461bcd60e51b8152600401610c16906154da565b610d6f816129ba565b50565b610d7a6129a7565b610d965760405162461bcd60e51b8152600401610c16906154da565b6000848152600d6020526040902080546001820154818415610dbf57610dbc8284615518565b90505b600184018690558084556000805b87811015610f7857801580610e055750888882818110610def57610def61552b565b9050602002810190610e019190615541565b3582105b610e365760405162461bcd60e51b815260206004820152600260248201526114d560f21b6044820152606401610c16565b60006002870181610e478487615518565b8152602001908152602001600020600201549050898983818110610e6d57610e6d61552b565b9050602002810190610e7f9190615541565b60200135811115610ec75760405162461bcd60e51b81526020600482015260126024820152711b585e081cdd5c1c1b1e4818db185a5b595960721b6044820152606401610c16565b898983818110610ed957610ed961552b565b9050602002810190610eeb9190615541565b600288016000610efb8588615518565b81526020019081526020016000208181610f1591906156ac565b50819050600288016000610f298588615518565b8152602081019190915260400160002060020155898983818110610f4f57610f4f61552b565b9050602002810190610f619190615541565b359250819050610f708161572a565b915050610dcd565b508515610ffa57835b82811015610ff4576000818152600280880160205260408220828155600181018390559081018290556003810182905560048101829055600581018290556006810180546001600160a01b031916905590610fdf60078301826148cf565b50508080610fec9061572a565b915050610f81565b5061108b565b8683111561108b57865b838110156110895760028601600061101c8386615518565b81526020810191909152604001600090812081815560018101829055600281018290556003810182905560048101829055600581018290556006810180546001600160a01b03191690559061107460078301826148cf565b505080806110819061572a565b915050611004565b505b887f066f72a648b18490c0bc4ab07d508cdb5d6589fa188c63cfba1e0547f3a6556a8989896040516110bf939291906157b1565b60405180910390a2505050505050505050565b6110da6129a7565b6110f65760405162461bcd60e51b8152600401610c16906154da565b6111008282612a0c565b5050565b600061110f60075490565b821061114d5760405162461bcd60e51b815260206004820152600d60248201526c092dcecc2d8d2c840d2dcc8caf609b1b6044820152606401610c16565b600782815481106111605761116061552b565b90600052602060002001549050919050565b600061117e8133612a9a565b600083815261010f602090815260409182902080546001600160a01b0319166001600160a01b038616908117909155915191825284917f359479172ba65a6639b0df237f704e030498cb7135d5e89b56f598bd1d84b016910160405180910390a2505050565b6000806000806111f386611475565b90945084925061ffff16905061271061120c8287615899565b61121691906158b0565b925050509250929050565b60a454859060ff16156112f7576daaeb6d7670e522a718067333cd4e3b156112f757336001600160a01b03821603611265576112608686868686612b1a565b611304565b604051633185c44d60e21b81523060048201523360248201526daaeb6d7670e522a718067333cd4e9063c617113490604401602060405180830381865afa1580156112b4573d6000803e3d6000fd5b505050506040513d601f19601f820116820180604052508101906112d891906158d2565b6112f757604051633b79c77360e21b8152336004820152602401610c16565b6113048686868686612b1a565b505050505050565b6000828152600b60205260409020546113259033612a9a565b6000828152600a602090815260408083206001600160a01b038516845290915290205460ff16156113985760405162461bcd60e51b815260206004820152601d60248201527f43616e206f6e6c79206772616e7420746f206e6f6e20686f6c646572730000006044820152606401610c16565b6111008282612b78565b6113aa6129a7565b61140a5760405162461bcd60e51b815260206004820152602b60248201527f4e6f7420617574686f72697a656420746f20736574206f70657261746f72207260448201526a32b9ba3934b1ba34b7b71760a91b6064820152608401610c16565b610d6f81612b8c565b336001600160a01b0382161461146b5760405162461bcd60e51b815260206004820152601a60248201527f43616e206f6e6c792072656e6f756e636520666f722073656c660000000000006044820152606401610c16565b6111008282612bd3565b6000818152600460209081526040808320815180830190925280546001600160a01b0316808352600190910154928201929092528291156114bc57805160208201516114d6565b6003546001600160a01b03811690600160a01b900461ffff165b9250925050915091565b606081518351146115455760405162461bcd60e51b815260206004820152602960248201527f455243313135353a206163636f756e747320616e6420696473206c656e677468604482015268040dad2e6dac2e8c6d60bb1b6064820152608401610c16565b600083516001600160401b0381111561156057611560614b43565b604051908082528060200260200182016040528015611589578160200160208202803683370190505b50905060005b8451811015611601576115d48582815181106115ad576115ad61552b565b60200260200101518583815181106115c7576115c761552b565b6020026020010151610baf565b8282815181106115e6576115e661552b565b60209081029190910101526115fa8161572a565b905061158f565b509392505050565b61161886888787878787612c2a565b60006116238761174c565b905061163b81611631612cc1565b898989898961222f565b506000878152600d602090815260408083208484526002908101909252822001805488929061166b908490615518565b90915550506000878152600d6020908152604080832084845260030190915281208791611696612cc1565b6001600160a01b03166001600160a01b0316815260200190815260200160002060008282546116c59190615518565b909155506116d99050876000888888612ccb565b6116e4888888612e0c565b876001600160a01b03166116f6612cc1565b6001600160a01b0316827ffa76a4010d9533e3e964f2930a65fb6042a12fa6ff5b08281837a10b0be7321e8a8a60405161173a929190918252602082015260400190565b60405180910390a45050505050505050565b6000818152600d6020526040812060018101548154839161176c91615518565b90505b81548111156117c6576002820160006117896001846158ef565b81526020019081526020016000206000015442106117b4576117ac6001826158ef565b949350505050565b806117be81615902565b91505061176f565b5060405162461bcd60e51b815260206004820152600b60248201526a10a1a7a72224aa24a7a71760a91b6044820152606401610c16565b6118056129a7565b6118215760405162461bcd60e51b8152600401610c16906154da565b6111008282612e27565b611833612ea4565b6001600160a01b0316836001600160a01b03161480611859575061185983610b41612ea4565b6118b85760405162461bcd60e51b815260206004820152602a60248201527f455243313135353a2063616c6c6572206973206e6f74206f776e6572206e6f726044820152691030b8383937bb32b21760b11b6064820152608401610c16565b6118c3838383612eae565b505050565b6118d06129a7565b6118ec5760405162461bcd60e51b8152600401610c16906154da565b610d6f816130ce565b60006119018133612a9a565b600083815261010e602090815260409182902084905581518581529081018490527fc58cd6132bb46df23d468939c03dd023b74b509aaa6b04c39d5a6461c65963bd910160405180910390a1505050565b6000828152600c602052604081205481805b82811015611a37576000868152600c602090815260408083208484526001019091529020546001600160a01b0316156119e0578482036119ce576000868152600c602090815260408083209383526001909301905220546001600160a01b03169250610c44915050565b6119d9600183615518565b9150611a25565b6119eb866000611a40565b8015611a1257506000868152600c6020908152604080832083805260020190915290205481145b15611a2557611a22600183615518565b91505b611a30600182615518565b9050611964565b50505092915050565b6000918252600a602090815260408084206001600160a01b0393909316845291905290205460ff1690565b611a736129a7565b611a8f5760405162461bcd60e51b8152600401610c16906154da565b610d6f81613118565b61010a8054610c8090615477565b611aae6129a7565b611aca5760405162461bcd60e51b8152600401610c16906154da565b6118c38383836131f4565b60a454829060ff1615611b9b576daaeb6d7670e522a718067333cd4e3b15611b9b57604051633185c44d60e21b81523060048201526001600160a01b03821660248201526daaeb6d7670e522a718067333cd4e9063c617113490604401602060405180830381865afa158015611b4f573d6000803e3d6000fd5b505050506040513d601f19601f82011682018060405250810190611b7391906158d2565b611b9b57604051633b79c77360e21b81526001600160a01b0382166004820152602401610c16565b6118c3838361329c565b6000828152600a6020908152604080832083805290915281205460ff16611bf257506000828152600a602090815260408083206001600160a01b038516845290915290205460ff16610c44565b50600192915050565b6060816001600160401b03811115611c1557611c15614b43565b604051908082528060200260200182016040528015611c4857816020015b6060815260200190600190039081611c335790505b50905060005b82811015611ce857611cb830858584818110611c6c57611c6c61552b565b9050602002810190611c7e9190615561565b8080601f0160208091040260200160405190810160405280939291908181526020018383808284376000920191909152506132ae92505050565b828281518110611cca57611cca61552b565b60200260200101819052508080611ce09061572a565b915050611c4e565b5092915050565b6000818152600c6020526040812054815b81811015611d53576000848152600c602090815260408083208484526001019091529020546001600160a01b031615611d4157611d3e600184615518565b92505b611d4c600182615518565b9050611d00565b50611d5f836000611a40565b15611d7257611d6f600183615518565b91505b50919050565b6000611d826133a2565b611d9e5760405162461bcd60e51b8152600401610c16906154da565b85600003611dd65760405162461bcd60e51b81526020600482015260056024820152640c08185b5d60da1b6044820152606401610c16565b60006009549050611e1e818888888080601f0160208091040260200160405190810160405280939291908181526020018383808284376000920191909152506133b392505050565b6009919091559150807f2a0365091ef1a40953c670dce28177e37520648a6fdc91506bffac0ab045570d6001611e548a84615518565b611e5e91906158ef565b88888888604051611e73959493929190615919565b60405180910390a25095945050505050565b611ed960405180610100016040528060008152602001600081526020016000815260200160008152602001600080191681526020016000815260200160006001600160a01b03168152602001606081525090565b6000838152600d6020908152604080832085845260029081018352928190208151610100810183528154815260018201549381019390935292830154908201526003820154606082015260048201546080820152600582015460a082015260068201546001600160a01b031660c082015260078201805491929160e084019190611f6290615477565b80601f0160208091040260200160405190810160405280929190818152602001828054611f8e90615477565b8015611fdb5780601f10611fb057610100808354040283529160200191611fdb565b820191906000526020600020905b815481529060010190602001808311611fbe57829003601f168201915b505050505081525050905092915050565b6000828152600b602052604090205461146b9033612a9a565b600054610100900460ff16158080156120255750600054600160ff909116105b8061203f5750303b15801561203f575060005460ff166001145b6120a25760405162461bcd60e51b815260206004820152602e60248201527f496e697469616c697a61626c653a20636f6e747261637420697320616c72656160448201526d191e481a5b9a5d1a585b1a5e995960921b6064820152608401610c16565b6000805460ff1916600117905580156120c5576000805461ff0019166101001790555b7f8502233096d909befbda0999bb8ea2f3a6be3c138b9fbf003752a4c8bce86f6c7f9f2df0fed2c77648de5860a4cc508cd0818c85b8b8a1ab4ceeef8d981c8956a661211089613417565b6121286040518060200160405280600081525061344f565b61213061347f565b6121398a613118565b6121428d6129ba565b61214c6001612b8c565b61215760008e612b78565b612161818e612b78565b61216b828e612b78565b612176826000612b78565b61218984866001600160801b0316612a0c565b61219c87876001600160801b0316612e27565b6121a5886130ce565b61010b82905561010c8190556101096121be8d82615952565b5061010a6121cc8c82615952565b5050508015612215576000805461ff0019169055604051600181527f7f26b83ff96e1f2b6a682f133852f6798a09c465da95921460cefb38474024989060200160405180910390a15b5050505050505050505050565b60018054610c8090615477565b6000858152600d602090815260408083208a8452600290810183528184208251610100810184528154815260018201549481019490945290810154918301919091526003810154606083015260048101546080830152600581015460a083015260068101546001600160a01b031660c08301526007810180548493929160e08401916122ba90615477565b80601f01602080910402602001604051908101604052809291908181526020018280546122e690615477565b80156123335780601f1061230857610100808354040283529160200191612333565b820191906000526020600020905b81548152906001019060200180831161231657829003601f168201915b50505091909252505050606081015160a082015160c083015160808401519394509192909190156124185761241461236b8780615a11565b80806020026020016040519081016040528093929190818152602001838360200280828437600092019190915250505060808088015191508e9060208b01359060408c0135906123c0908d0160608e01614a1d565b6040516bffffffffffffffffffffffff19606095861b811660208301526034820194909452605481019290925290921b166074820152608801604051602081830303815290604052805190602001206134a0565b5094505b841561249f5785602001356000036124305782612436565b85602001355b925060001986604001350361244b5781612451565b85604001355b9150600019866040013514158015612482575060006124766080880160608901614a1d565b6001600160a01b031614155b61248c578061249c565b61249c6080870160608801614a1d565b90505b6000600d60008c815260200190815260200160002060030160008e815260200190815260200160002060008d6001600160a01b03166001600160a01b03168152602001908152602001600020549050816001600160a01b0316896001600160a01b031614158061250f5750828814155b1561254f5760405162461bcd60e51b815260206004820152601060248201526f2150726963654f7243757272656e637960801b6044820152606401610c16565b891580612564575083612562828c615518565b115b1561259a5760405162461bcd60e51b8152600401610c16906020808252600490820152632151747960e01b604082015260600190565b84602001518a86604001516125af9190615518565b11156125ea5760405162461bcd60e51b815260206004820152600a602482015269214d6178537570706c7960b01b6044820152606401610c16565b845142101561262c5760405162461bcd60e51b815260206004820152600e60248201526d18d85b9d0818db185a5b481e595d60921b6044820152606401610c16565b5050505050979650505050505050565b60a454859060ff161561270d576daaeb6d7670e522a718067333cd4e3b1561270d57336001600160a01b0382160361267b57611260868686868661356e565b604051633185c44d60e21b81523060048201523360248201526daaeb6d7670e522a718067333cd4e9063c617113490604401602060405180830381865afa1580156126ca573d6000803e3d6000fd5b505050506040513d601f19601f820116820180604052508101906126ee91906158d2565b61270d57604051633b79c77360e21b8152336004820152602401610c16565b611304868686868661356e565b6001600160a01b03163b151590565b60006001600160e01b03198216636cdb3d1360e11b148061275a57506001600160e01b031982166303a24d0760e21b145b80610c4457506301ffc9a760e01b6001600160e01b0319831614610c44565b6060600061278660075490565b9050600060078054806020026020016040519081016040528092919081815260200182805480156127d657602002820191906000526020600020905b8154815260200190600101908083116127c2575b5050505050905060005b828110156128da578181815181106127fa576127fa61552b565b60200260200101518510156128c8576008600083838151811061281f5761281f61552b565b60200260200101518152602001908152602001600020805461284090615477565b80601f016020809104026020016040519081016040528092919081815260200182805461286c90615477565b80156128b95780601f1061288e576101008083540402835291602001916128b9565b820191906000526020600020905b81548152906001019060200180831161289c57829003601f168201915b50505050509350505050919050565b6128d3600182615518565b90506127e0565b5060405162461bcd60e51b815260206004820152600f60248201526e125b9d985b1a59081d1bdad95b9259608a1b6044820152606401610c16565b60606000612922836135c5565b60010190506000816001600160401b0381111561294157612941614b43565b6040519080825280601f01601f19166020018201604052801561296b576020820181803683370190505b5090508181016020015b600019016f181899199a1a9b1b9c1cb0b131b232b360811b600a86061a8153600a850494508461297557509392505050565b60006129b581610847612ea4565b905090565b600680546001600160a01b038381166001600160a01b0319831681179093556040519116919082907f8292fce18fa69edf4db7b94ea2e58241df0ae57f97e0a6c9b29067028bf92d7690600090a35050565b612710811115612a2e5760405162461bcd60e51b8152600401610c1690615a5a565b600280546001600160b01b031916600160a01b61ffff8416026001600160a01b031916176001600160a01b0384169081179091556040518281527fe2497bd806ec41a6e0dd992c29a72efc0ef8fec9092d1978fd4a1e00b2f18304906020015b60405180910390a25050565b6000828152600a602090815260408083206001600160a01b038516845290915290205460ff1661110057612ad8816001600160a01b0316601461369d565b612ae383602061369d565b604051602001612af4929190615a83565b60408051601f198184030181529082905262461bcd60e51b8252610c16916004016149f1565b612b22612ea4565b6001600160a01b0316856001600160a01b03161480612b485750612b4885610b41612ea4565b612b645760405162461bcd60e51b8152600401610c1690615af0565b612b71858585858561383f565b5050505050565b612b8282826139ef565b6111008282613a4a565b60a4805460ff19168215159081179091556040519081527f38475885990d8dfe9ca01f0ef160a1b5514426eab9ddbc953a3353410ba780969060200160405180910390a150565b612bdd8282613ab7565b6000828152600c602090815260408083206001600160a01b03851680855260028201808552838620805487526001909301855292852080546001600160a01b031916905584529152555050565b600087815261010e60205260409020541580612c6c5750600087815261010e602090815260408083205461010d90925290912054612c69908790615518565b11155b612cb85760405162461bcd60e51b815260206004820152601760248201527f657863656564206d617820746f74616c20737570706c790000000000000000006044820152606401610c16565b50505050505050565b60006129b5612ea4565b8015612b71576002546001600160a01b0380821691600160a01b900461ffff1690600090871615612cfc5786612d45565b600088815261010f60205260409020546001600160a01b031615612d3857600088815261010f60205260409020546001600160a01b0316612d45565b6005546001600160a01b03165b90506000612d538588615899565b90506000612710612d6861ffff861684615899565b612d7291906158b0565b905073eeeeeeeeeeeeeeeeeeeeeeeeeeeeeeeeeeeeeeed196001600160a01b03881601612dd157813414612dd15760405162461bcd60e51b815260206004820152600660248201526521507269636560d01b6044820152606401610c16565b612de487612ddd612ea4565b8784613b19565b612e0087612df0612ea4565b85612dfb85876158ef565b613b19565b50505050505050505050565b6118c383838360405180602001604052806000815250613b5f565b612710811115612e495760405162461bcd60e51b8152600401610c1690615a5a565b600380546001600160a01b0384166001600160b01b03199091168117600160a01b61ffff851602179091556040518281527f90d7ec04bcb8978719414f82e52e4cb651db41d0e6f8cea6118c2191e6183adb90602001612a8e565b60006129b5613c86565b6001600160a01b038316612f105760405162461bcd60e51b815260206004820152602360248201527f455243313135353a206275726e2066726f6d20746865207a65726f206164647260448201526265737360e81b6064820152608401610c16565b8051825114612f315760405162461bcd60e51b8152600401610c1690615b3e565b6000612f3b612ea4565b9050612f5b81856000868660405180602001604052806000815250613cb3565b60005b835181101561305f576000848281518110612f7b57612f7b61552b565b602002602001015190506000848381518110612f9957612f9961552b565b602090810291909101810151600084815260d7835260408082206001600160a01b038c1683529093529190912054909150818110156130265760405162461bcd60e51b8152602060048201526024808201527f455243313135353a206275726e20616d6f756e7420657863656564732062616c604482015263616e636560e01b6064820152608401610c16565b600092835260d7602090815260408085206001600160a01b038b16865290915290922091039055806130578161572a565b915050612f5e565b5060006001600160a01b0316846001600160a01b0316826001600160a01b03167f4a39dc06d4c0dbc64b70af90fd698a233a518aa5d07e595d983b8c0526c8f7fb86866040516130b0929190615b86565b60405180910390a46040805160208101909152600090525b50505050565b600580546001600160a01b0319166001600160a01b0383169081179091556040517f299d17e95023f496e0ffc4909cff1a61f74bb5eb18de6f900f4155bfa1b3b33390600090a250565b60006001805461312790615477565b80601f016020809104026020016040519081016040528092919081815260200182805461315390615477565b80156131a05780601f10613175576101008083540402835291602001916131a0565b820191906000526020600020905b81548152906001019060200180831161318357829003601f168201915b5050505050905081600190816131b69190615952565b507fc9c7c3fe08b88b4df9d4d47ef47d2c43d55c025a0ba88ca442580ed9e7348a1681836040516131e8929190615bab565b60405180910390a15050565b6127108111156132165760405162461bcd60e51b8152600401610c1690615a5a565b6040805180820182526001600160a01b038481168083526020808401868152600089815260048352869020945185546001600160a01b031916941693909317845591516001909301929092559151838152909185917f7365cf4122f072a3365c20d54eff9b38d73c096c28e1892ec8f5b0e403a0f12d91015b60405180910390a3505050565b6111006132a7612ea4565b8383613e75565b60606001600160a01b0383163b6133165760405162461bcd60e51b815260206004820152602660248201527f416464726573733a2064656c65676174652063616c6c20746f206e6f6e2d636f6044820152651b9d1c9858dd60d21b6064820152608401610c16565b600080846001600160a01b0316846040516133319190615bd0565b600060405180830381855af49150503d806000811461336c576040519150601f19603f3d011682016040523d82523d6000602084013e613371565b606091505b50915091506133998282604051806060016040528060278152602001615e5260279139613f4d565b95945050505050565b60006129b561010c54610847612ea4565b6000806133c08486615518565b60078054600181019091557fa66cc928b5edb82af9bd49922954155ab7b0942694bea4ce44661d9a8736c68801819055600081815260086020526040902090925082915061340e8482615952565b50935093915050565b600054610100900460ff1661343e5760405162461bcd60e51b8152600401610c1690615be2565b613446613f66565b610d6f81613f8d565b600054610100900460ff166134765760405162461bcd60e51b8152600401610c1690615be2565b610d6f8161401c565b61349e733cc6cdda760b79bafa08df41ecfa224f810dceb66001614028565b565b6000808281805b8751811015613562576134bb600283615899565b915060008882815181106134d1576134d161552b565b6020026020010151905080841161351357604080516020810186905290810182905260600160405160208183030381529060405280519060200120935061354f565b604080516020810183905290810185905260600160405160208183030381529060405280519060200120935060018361354c9190615518565b92505b508061355a8161572a565b9150506134a7565b50941495939450505050565b613576612ea4565b6001600160a01b0316856001600160a01b0316148061359c575061359c85610b41612ea4565b6135b85760405162461bcd60e51b8152600401610c1690615af0565b612b7185858585856141a0565b60008072184f03e93ff9f4daa797ed6e38ed64bf6a1f0160401b83106136045772184f03e93ff9f4daa797ed6e38ed64bf6a1f0160401b830492506040015b6d04ee2d6d415b85acef81000000008310613630576d04ee2d6d415b85acef8100000000830492506020015b662386f26fc10000831061364e57662386f26fc10000830492506010015b6305f5e1008310613666576305f5e100830492506008015b612710831061367a57612710830492506004015b6064831061368c576064830492506002015b600a8310610c445760010192915050565b606060006136ac836002615899565b6136b7906002615518565b6001600160401b038111156136ce576136ce614b43565b6040519080825280601f01601f1916602001820160405280156136f8576020820181803683370190505b509050600360fc1b816000815181106137135761371361552b565b60200101906001600160f81b031916908160001a905350600f60fb1b816001815181106137425761374261552b565b60200101906001600160f81b031916908160001a9053506000613766846002615899565b613771906001615518565b90505b60018111156137e9576f181899199a1a9b1b9c1cb0b131b232b360811b85600f16601081106137a5576137a561552b565b1a60f81b8282815181106137bb576137bb61552b565b60200101906001600160f81b031916908160001a90535060049490941c936137e281615902565b9050613774565b5083156138385760405162461bcd60e51b815260206004820181905260248201527f537472696e67733a20686578206c656e67746820696e73756666696369656e746044820152606401610c16565b9392505050565b81518351146138605760405162461bcd60e51b8152600401610c1690615b3e565b6001600160a01b0384166138865760405162461bcd60e51b8152600401610c1690615c2d565b6000613890612ea4565b90506138a0818787878787613cb3565b60005b84518110156139895760008582815181106138c0576138c061552b565b6020026020010151905060008583815181106138de576138de61552b565b602090810291909101810151600084815260d7835260408082206001600160a01b038e16835290935291909120549091508181101561392f5760405162461bcd60e51b8152600401610c1690615c72565b600083815260d7602090815260408083206001600160a01b038e8116855292528083208585039055908b1682528120805484929061396e908490615518565b92505081905550505050806139829061572a565b90506138a3565b50846001600160a01b0316866001600160a01b0316826001600160a01b03167f4a39dc06d4c0dbc64b70af90fd698a233a518aa5d07e595d983b8c0526c8f7fb87876040516139d9929190615b86565b60405180910390a46113048187878787876142e7565b6000828152600a602090815260408083206001600160a01b0385168085529252808320805460ff1916600117905551339285917f2f8788117e7eff1d82e926ec794901d17c78024a50270940304540a733656f0d9190a45050565b6000828152600c6020526040812080549160019190613a698385615518565b90915550506000928352600c6020908152604080852083865260018101835281862080546001600160a01b039096166001600160a01b03199096168617905593855260029093019052912055565b613ac18282612a9a565b6000828152600a602090815260408083206001600160a01b0385168085529252808320805460ff1916905551339285917ff6391f5c32d9c69d2a47ea670b442974b53935d1edc7fd64eb21e047a839171b9190a45050565b80156130c85773eeeeeeeeeeeeeeeeeeeeeeeeeeeeeeeeeeeeeeed196001600160a01b03851601613b5357613b4e8282614442565b6130c8565b6130c8848484846144e5565b6001600160a01b038416613bbf5760405162461bcd60e51b815260206004820152602160248201527f455243313135353a206d696e7420746f20746865207a65726f206164647265736044820152607360f81b6064820152608401610c16565b6000613bc9612ea4565b90506000613bd685614538565b90506000613be385614538565b9050613bf483600089858589613cb3565b600086815260d7602090815260408083206001600160a01b038b16845290915281208054879290613c26908490615518565b909155505060408051878152602081018790526001600160a01b03808a1692600092918716917fc3d58168c5ae7397731d063d5bbf3d657854427343f4c083240f7aacaa2d0f62910160405180910390a4612cb883600089898989614583565b3360009081526040602081905281205460ff1615613cab575060131936013560601c90565b503390565b90565b613cc161010b546000611a40565b158015613cd657506001600160a01b03851615155b8015613cea57506001600160a01b03841615155b15613d6757613cfc61010b5486611a40565b80613d0f5750613d0f61010b5485611a40565b613d675760405162461bcd60e51b8152602060048201526024808201527f7265737472696374656420746f205452414e534645525f524f4c4520686f6c6460448201526332b9399760e11b6064820152608401610c16565b6001600160a01b038516613def5760005b8351811015613ded57828181518110613d9357613d9361552b565b602002602001015161010d6000868481518110613db257613db261552b565b602002602001015181526020019081526020016000206000828254613dd79190615518565b90915550613de690508161572a565b9050613d78565b505b6001600160a01b0384166113045760005b8351811015612cb857828181518110613e1b57613e1b61552b565b602002602001015161010d6000868481518110613e3a57613e3a61552b565b602002602001015181526020019081526020016000206000828254613e5f91906158ef565b90915550613e6e90508161572a565b9050613e00565b816001600160a01b0316836001600160a01b031603613ee85760405162461bcd60e51b815260206004820152602960248201527f455243313135353a2073657474696e6720617070726f76616c20737461747573604482015268103337b91039b2b63360b91b6064820152608401610c16565b6001600160a01b03838116600081815260d86020908152604080832094871680845294825291829020805460ff191686151590811790915591519182527f17307eab39ab6107e8899845ad3d59bd9653f200f220920489ca2b5937696c31910161328f565b60608315613f5c575081613838565b613838838361463e565b600054610100900460ff1661349e5760405162461bcd60e51b8152600401610c1690615be2565b600054610100900460ff16613fb45760405162461bcd60e51b8152600401610c1690615be2565b60005b815181101561110057600160406000848481518110613fd857613fd861552b565b6020908102919091018101516001600160a01b03168252810191909152604001600020805460ff1916911515919091179055806140148161572a565b915050613fb7565b60d96111008282615952565b6daaeb6d7670e522a718067333cd4e3b156111005760405163c3c5a54760e01b81523060048201526daaeb6d7670e522a718067333cd4e9063c3c5a547906024016020604051808303816000875af1158015614088573d6000803e3d6000fd5b505050506040513d601f19601f820116820180604052508101906140ac91906158d2565b61110057801561412057604051633e9f1edf60e11b81523060048201526001600160a01b03831660248201526daaeb6d7670e522a718067333cd4e90637d3e3dbe906044015b600060405180830381600087803b15801561410c57600080fd5b505af1158015611304573d6000803e3d6000fd5b6001600160a01b0382161561416f5760405163a0af290360e01b81523060048201526001600160a01b03831660248201526daaeb6d7670e522a718067333cd4e9063a0af2903906044016140f2565b604051632210724360e11b81523060048201526daaeb6d7670e522a718067333cd4e90634420e486906024016140f2565b6001600160a01b0384166141c65760405162461bcd60e51b8152600401610c1690615c2d565b60006141d0612ea4565b905060006141dd85614538565b905060006141ea85614538565b90506141fa838989858589613cb3565b600086815260d7602090815260408083206001600160a01b038c1684529091529020548581101561423d5760405162461bcd60e51b8152600401610c1690615c72565b600087815260d7602090815260408083206001600160a01b038d8116855292528083208985039055908a1682528120805488929061427c908490615518565b909155505060408051888152602081018890526001600160a01b03808b16928c821692918816917fc3d58168c5ae7397731d063d5bbf3d657854427343f4c083240f7aacaa2d0f62910160405180910390a46142dc848a8a8a8a8a614583565b505050505050505050565b6001600160a01b0384163b156113045760405163bc197c8160e01b81526001600160a01b0385169063bc197c819061432b9089908990889088908890600401615cbc565b6020604051808303816000875af1925050508015614366575060408051601f3d908101601f1916820190925261436391810190615d0e565b60015b61441257614372615d2b565b806308c379a0036143ab5750614386615d46565b8061439157506143ad565b8060405162461bcd60e51b8152600401610c1691906149f1565b505b60405162461bcd60e51b815260206004820152603460248201527f455243313135353a207472616e7366657220746f206e6f6e2d455243313135356044820152732932b1b2b4bb32b91034b6b83632b6b2b73a32b960611b6064820152608401610c16565b6001600160e01b0319811663bc197c8160e01b14612cb85760405162461bcd60e51b8152600401610c1690615dcf565b6000826001600160a01b03168260405160006040518083038185875af1925050503d806000811461448f576040519150601f19603f3d011682016040523d82523d6000602084013e614494565b606091505b50509050806118c35760405162461bcd60e51b815260206004820152601c60248201527f6e617469766520746f6b656e207472616e73666572206661696c6564000000006044820152606401610c16565b816001600160a01b0316836001600160a01b031603156130c857306001600160a01b0384160361452357613b4e6001600160a01b038516838361464e565b6130c86001600160a01b0385168484846146b1565b604080516001808252818301909252606091600091906020808301908036833701905050905082816000815181106145725761457261552b565b602090810291909101015292915050565b6001600160a01b0384163b156113045760405163f23a6e6160e01b81526001600160a01b0385169063f23a6e61906145c79089908990889088908890600401615e17565b6020604051808303816000875af1925050508015614602575060408051601f3d908101601f191682019092526145ff91810190615d0e565b60015b61460e57614372615d2b565b6001600160e01b0319811663f23a6e6160e01b14612cb85760405162461bcd60e51b8152600401610c1690615dcf565b8151156143915781518083602001fd5b6040516001600160a01b0383166024820152604481018290526118c390849063a9059cbb60e01b906064015b60408051601f198184030181529190526020810180516001600160e01b03166001600160e01b0319909316929092179091526146e9565b6040516001600160a01b03808516602483015283166044820152606481018290526130c89085906323b872dd60e01b9060840161467a565b600061473e826040518060400160405280602081526020017f5361666545524332303a206c6f772d6c6576656c2063616c6c206661696c6564815250856001600160a01b03166147bb9092919063ffffffff16565b8051909150156118c3578080602001905181019061475c91906158d2565b6118c35760405162461bcd60e51b815260206004820152602a60248201527f5361666545524332303a204552433230206f7065726174696f6e20646964206e6044820152691bdd081cdd58d8d9595960b21b6064820152608401610c16565b60606117ac8484600085856001600160a01b0385163b61481d5760405162461bcd60e51b815260206004820152601d60248201527f416464726573733a2063616c6c20746f206e6f6e2d636f6e74726163740000006044820152606401610c16565b600080866001600160a01b031685876040516148399190615bd0565b60006040518083038185875af1925050503d8060008114614876576040519150601f19603f3d011682016040523d82523d6000602084013e61487b565b606091505b509150915061488b828286614896565b979650505050505050565b606083156148a5575081613838565b8251156148b55782518084602001fd5b8160405162461bcd60e51b8152600401610c1691906149f1565b5080546148db90615477565b6000825580601f106148eb575050565b601f016020900490600052602060002090810190610d6f91905b808211156149195760008155600101614905565b5090565b6001600160a01b0381168114610d6f57600080fd5b803561493d8161491d565b919050565b6000806040838503121561495557600080fd5b82356149608161491d565b946020939093013593505050565b6001600160e01b031981168114610d6f57600080fd5b60006020828403121561499657600080fd5b81356138388161496e565b60005b838110156149bc5781810151838201526020016149a4565b50506000910152565b600081518084526149dd8160208601602086016149a1565b601f01601f19169290920160200192915050565b60208152600061383860208301846149c5565b600060208284031215614a1657600080fd5b5035919050565b600060208284031215614a2f57600080fd5b81356138388161491d565b60008083601f840112614a4c57600080fd5b5081356001600160401b03811115614a6357600080fd5b6020830191508360208260051b8501011115614a7e57600080fd5b9250929050565b8015158114610d6f57600080fd5b60008060008060608587031215614aa957600080fd5b8435935060208501356001600160401b03811115614ac657600080fd5b614ad287828801614a3a565b9094509250506040850135614ae681614a85565b939692955090935050565b60008060408385031215614b0457600080fd5b823591506020830135614b168161491d565b809150509250929050565b60008060408385031215614b3457600080fd5b50508035926020909101359150565b634e487b7160e01b600052604160045260246000fd5b601f8201601f191681016001600160401b0381118282101715614b7e57614b7e614b43565b6040525050565b60006001600160401b03821115614b9e57614b9e614b43565b5060051b60200190565b600082601f830112614bb957600080fd5b81356020614bc682614b85565b604051614bd38282614b59565b83815260059390931b8501820192828101915086841115614bf357600080fd5b8286015b84811015614c0e5780358352918301918301614bf7565b509695505050505050565b600082601f830112614c2a57600080fd5b81356001600160401b03811115614c4357614c43614b43565b604051614c5a601f8301601f191660200182614b59565b818152846020838601011115614c6f57600080fd5b816020850160208301376000918101602001919091529392505050565b600080600080600060a08688031215614ca457600080fd5b8535614caf8161491d565b94506020860135614cbf8161491d565b935060408601356001600160401b0380821115614cdb57600080fd5b614ce789838a01614ba8565b94506060880135915080821115614cfd57600080fd5b614d0989838a01614ba8565b93506080880135915080821115614d1f57600080fd5b50614d2c88828901614c19565b9150509295509295909350565b600060208284031215614d4b57600080fd5b813561383881614a85565b600082601f830112614d6757600080fd5b81356020614d7482614b85565b604051614d818282614b59565b83815260059390931b8501820192828101915086841115614da157600080fd5b8286015b84811015614c0e578035614db88161491d565b8352918301918301614da5565b60008060408385031215614dd857600080fd5b82356001600160401b0380821115614def57600080fd5b614dfb86838701614d56565b93506020850135915080821115614e1157600080fd5b50614e1e85828601614ba8565b9150509250929050565b600081518084526020808501945080840160005b83811015614e5857815187529582019590820190600101614e3c565b509495945050505050565b6020815260006138386020830184614e28565b600060808284031215611d7257600080fd5b600080600080600080600060e0888a031215614ea357600080fd5b8735614eae8161491d565b965060208801359550604088013594506060880135614ecc8161491d565b93506080880135925060a08801356001600160401b0380821115614eef57600080fd5b614efb8b838c01614e76565b935060c08a0135915080821115614f1157600080fd5b50614f1e8a828b01614c19565b91505092959891949750929550565b600080600060608486031215614f4257600080fd5b83359250602084013591506040840135614f5b8161491d565b809150509250925092565b600080600060608486031215614f7b57600080fd5b8335614f868161491d565b925060208401356001600160401b0380821115614fa257600080fd5b614fae87838801614ba8565b93506040860135915080821115614fc457600080fd5b50614fd186828701614ba8565b9150509250925092565b600060208284031215614fed57600080fd5b81356001600160401b0381111561500357600080fd5b6117ac84828501614c19565b60008060006060848603121561502457600080fd5b8335925060208401356150368161491d565b929592945050506040919091013590565b6000806040838503121561505a57600080fd5b82356150658161491d565b91506020830135614b1681614a85565b6000806020838503121561508857600080fd5b82356001600160401b0381111561509e57600080fd5b6150aa85828601614a3a565b90969095509350505050565b6000602080830181845280855180835260408601915060408160051b870101925083870160005b8281101561510b57603f198886030184526150f98583516149c5565b945092850192908501906001016150dd565b5092979650505050505050565b60008083601f84011261512a57600080fd5b5081356001600160401b0381111561514157600080fd5b602083019150836020828501011115614a7e57600080fd5b60008060008060006060868803121561517157600080fd5b8535945060208601356001600160401b038082111561518f57600080fd5b61519b89838a01615118565b909650945060408801359150808211156151b457600080fd5b506151c188828901615118565b969995985093965092949392505050565b6020815281516020820152602082015160408201526040820151606082015260608201516080820152608082015160a082015260a082015160c082015260018060a01b0360c08301511660e0820152600060e08301516101008081850152506117ac6101208401826149c5565b80356001600160801b038116811461493d57600080fd5b6000806000806000806000806000806101408b8d03121561527657600080fd5b61527f8b614932565b995060208b01356001600160401b038082111561529b57600080fd5b6152a78e838f01614c19565b9a5060408d01359150808211156152bd57600080fd5b6152c98e838f01614c19565b995060608d01359150808211156152df57600080fd5b6152eb8e838f01614c19565b985060808d013591508082111561530157600080fd5b5061530e8d828e01614d56565b96505061531d60a08c01614932565b945061532b60c08c01614932565b935061533960e08c0161523f565b92506153486101008c0161523f565b91506153576101208c01614932565b90509295989b9194979a5092959850565b6000806040838503121561537b57600080fd5b82356153868161491d565b91506020830135614b168161491d565b600080600080600080600060e0888a0312156153b157600080fd5b8735965060208801356153c38161491d565b9550604088013594506060880135935060808801356153e18161491d565b925060a0880135915060c08801356001600160401b0381111561540357600080fd5b614f1e8a828b01614e76565b600080600080600060a0868803121561542757600080fd5b85356154328161491d565b945060208601356154428161491d565b9350604086013592506060860135915060808601356001600160401b0381111561546b57600080fd5b614d2c88828901614c19565b600181811c9082168061548b57607f821691505b602082108103611d7257634e487b7160e01b600052602260045260246000fd5b600083516154bd8184602088016149a1565b8351908301906154d18183602088016149a1565b01949350505050565b6020808252600e908201526d139bdd08185d5d1a1bdc9a5e995960921b604082015260600190565b634e487b7160e01b600052601160045260246000fd5b80820180821115610c4457610c44615502565b634e487b7160e01b600052603260045260246000fd5b6000823560fe1983360301811261555757600080fd5b9190910192915050565b6000808335601e1984360301811261557857600080fd5b8301803591506001600160401b0382111561559257600080fd5b602001915036819003821315614a7e57600080fd5b601f8211156118c357600081815260208120601f850160051c810160208610156155ce5750805b601f850160051c820191505b81811015611304578281556001016155da565b6001600160401b0383111561560457615604614b43565b615618836156128354615477565b836155a7565b6000601f84116001811461564c57600085156156345750838201355b600019600387901b1c1916600186901b178355612b71565b600083815260209020601f19861690835b8281101561567d578685013582556020948501946001909201910161565d565b508682101561569a5760001960f88860031b161c19848701351681555b505060018560011b0183555050505050565b813581556020820135600182015560408201356002820155606082013560038201556080820135600482015560a082013560058201556006810160c08301356156f48161491d565b81546001600160a01b0319166001600160a01b039190911617905561571c60e0830183615561565b6130c88183600786016155ed565b60006001820161573c5761573c615502565b5060010190565b6000808335601e1984360301811261575a57600080fd5b83016020810192503590506001600160401b0381111561577957600080fd5b803603821315614a7e57600080fd5b81835281816020850137506000828201602090810191909152601f909101601f19169091010190565b60408082528181018490526000906060808401600587901b850182018885805b8a81101561588357888403605f190185528235368d900360fe190181126157f6578283fd5b8c018035855260208082013581870152888201358987015287820135888701526080808301359087015260a080830135908701526101009060c08084013561583d8161491d565b6001600160a01b03169088015260e061585884820185615743565b945083828a015261586c848a018683615788565b9983019998505050949094019350506001016157d1565b505050861515602087015293506117ac92505050565b8082028115828204841417610c4457610c44615502565b6000826158cd57634e487b7160e01b600052601260045260246000fd5b500490565b6000602082840312156158e457600080fd5b815161383881614a85565b81810381811115610c4457610c44615502565b60008161591157615911615502565b506000190190565b858152606060208201526000615933606083018688615788565b8281036040840152615946818587615788565b98975050505050505050565b81516001600160401b0381111561596b5761596b614b43565b61597f816159798454615477565b846155a7565b602080601f8311600181146159b4576000841561599c5750858301515b600019600386901b1c1916600185901b178555611304565b600085815260208120601f198616915b828110156159e3578886015182559484019460019091019084016159c4565b5085821015615a015787850151600019600388901b60f8161c191681555b5050505050600190811b01905550565b6000808335601e19843603018112615a2857600080fd5b8301803591506001600160401b03821115615a4257600080fd5b6020019150600581901b3603821315614a7e57600080fd5b6020808252600f908201526e45786365656473206d61782062707360881b604082015260600190565b7402832b936b4b9b9b4b7b7399d1030b1b1b7bab73a1605d1b815260008351615ab38160158501602088016149a1565b7001034b99036b4b9b9b4b733903937b6329607d1b6015918401918201528351615ae48160268401602088016149a1565b01602601949350505050565b6020808252602e908201527f455243313135353a2063616c6c6572206973206e6f7420746f6b656e206f776e60408201526d195c881bdc88185c1c1c9bdd995960921b606082015260800190565b60208082526028908201527f455243313135353a2069647320616e6420616d6f756e7473206c656e677468206040820152670dad2e6dac2e8c6d60c31b606082015260800190565b604081526000615b996040830185614e28565b82810360208401526133998185614e28565b604081526000615bbe60408301856149c5565b828103602084015261339981856149c5565b600082516155578184602087016149a1565b6020808252602b908201527f496e697469616c697a61626c653a20636f6e7472616374206973206e6f74206960408201526a6e697469616c697a696e6760a81b606082015260800190565b60208082526025908201527f455243313135353a207472616e7366657220746f20746865207a65726f206164604082015264647265737360d81b606082015260800190565b6020808252602a908201527f455243313135353a20696e73756666696369656e742062616c616e636520666f60408201526939103a3930b739b332b960b11b606082015260800190565b6001600160a01b0386811682528516602082015260a060408201819052600090615ce890830186614e28565b8281036060840152615cfa8186614e28565b9050828103608084015261594681856149c5565b600060208284031215615d2057600080fd5b81516138388161496e565b600060033d1115613cb05760046000803e5060005160e01c90565b600060443d1015615d545790565b6040516003193d81016004833e81513d6001600160401b038160248401118184111715615d8357505050505090565b8285019150815181811115615d9b5750505050505090565b843d8701016020828501011115615db55750505050505090565b615dc460208286010187614b59565b509095945050505050565b60208082526028908201527f455243313135353a204552433131353552656365697665722072656a656374656040820152676420746f6b656e7360c01b606082015260800190565b6001600160a01b03868116825285166020820152604081018490526060810183905260a06080820181905260009061488b908301846149c556fe416464726573733a206c6f772d6c6576656c2064656c65676174652063616c6c206661696c6564a26469706673582212209234fc8a47ac6ff17fb4e791de673aa11ee96e54c1bffb0cae4ca3277297fe2864736f6c63430008110033",
  "linkReferences": {},
  "deployedLinkReferences": {}
}