{
  "_format": "hh-sol-artifact-1",
  "contractName": "BUFFTOKEN",
  "sourceName": "contracts/TokenERC20.sol",
  "abi": [
    {
      "inputs": [
        {
          "internalType": "string",
          "name": "_name",
          "type": "string"
        },
        {
          "internalType": "string",
          "name": "_ssymbol",
          "type": "string"
        },
        {
          "internalType": "uint256",
          "name": "tottalsupply",
          "type": "uint256"
        },
        {
          "internalType": "address",
          "name": "_reciever1",
          "type": "address"
        },
        {
          "internalType": "address",
          "name": "_reciever2",
          "type": "address"
        },
        {
          "internalType": "uint256",
          "name": "_fee1",
          "type": "uint256"
        },
        {
          "internalType": "uint256",
          "name": "_fee2",
          "type": "uint256"
        },
        {
          "internalType": "uint256",
          "name": "_fee3",
          "type": "uint256"
        },
        {
          "internalType": "uint256",
          "name": "maxHLimit",
          "type": "uint256"
        },
        {
          "internalType": "uint256",
          "name": "_MaxTx",
          "type": "uint256"
        },
        {
          "internalType": "bool",
          "name": "SwapLocked",
          "type": "bool"
        }
      ],
      "stateMutability": "nonpayable",
      "type": "constructor"
    },
    {
      "anonymous": false,
      "inputs": [
        {
          "indexed": true,
          "internalType": "address",
          "name": "owner",
          "type": "address"
        },
        {
          "indexed": true,
          "internalType": "address",
          "name": "spender",
          "type": "address"
        },
        {
          "indexed": false,
          "internalType": "uint256",
          "name": "value",
          "type": "uint256"
        }
      ],
      "name": "Approval",
      "type": "event"
    },
    {
      "anonymous": false,
      "inputs": [
        {
          "indexed": true,
          "internalType": "address",
          "name": "account",
          "type": "address"
        },
        {
          "indexed": false,
          "internalType": "bool",
          "name": "isExcluded",
          "type": "bool"
        }
      ],
      "name": "ExcludeFromFee",
      "type": "event"
    },
    {
      "anonymous": false,
      "inputs": [
        {
          "indexed": false,
          "internalType": "uint256",
          "name": "feePercentage",
          "type": "uint256"
        },
        {
          "indexed": false,
          "internalType": "uint256",
          "name": "timestamp",
          "type": "uint256"
        }
      ],
      "name": "SetFeePercentage",
      "type": "event"
    },
    {
      "anonymous": false,
      "inputs": [
        {
          "indexed": false,
          "internalType": "bool",
          "name": "TransactionsEnabled",
          "type": "bool"
        },
        {
          "indexed": false,
          "internalType": "uint256",
          "name": "timestamp",
          "type": "uint256"
        }
      ],
      "name": "TransactionStatus",
      "type": "event"
    },
    {
      "anonymous": false,
      "inputs": [
        {
          "indexed": true,
          "internalType": "address",
          "name": "from",
          "type": "address"
        },
        {
          "indexed": true,
          "internalType": "address",
          "name": "to",
          "type": "address"
        },
        {
          "indexed": false,
          "internalType": "uint256",
          "name": "value",
          "type": "uint256"
        }
      ],
      "name": "Transfer",
      "type": "event"
    },
    {
      "anonymous": false,
      "inputs": [
        {
          "indexed": true,
          "internalType": "address",
          "name": "previousOwner",
          "type": "address"
        },
        {
          "indexed": true,
          "internalType": "address",
          "name": "newOwner",
          "type": "address"
        },
        {
          "indexed": false,
          "internalType": "uint256",
          "name": "timestamp",
          "type": "uint256"
        }
      ],
      "name": "TransferOwnership",
      "type": "event"
    },
    {
      "inputs": [],
      "name": "CheckIfSwapLocked",
      "outputs": [
        {
          "internalType": "bool",
          "name": "",
          "type": "bool"
        }
      ],
      "stateMutability": "view",
      "type": "function"
    },
    {
      "inputs": [
        {
          "internalType": "address",
          "name": "owwner",
          "type": "address"
        },
        {
          "internalType": "address",
          "name": "spender",
          "type": "address"
        }
      ],
      "name": "allowance",
      "outputs": [
        {
          "internalType": "uint256",
          "name": "",
          "type": "uint256"
        }
      ],
      "stateMutability": "view",
      "type": "function"
    },
    {
      "inputs": [
        {
          "internalType": "address",
          "name": "spender",
          "type": "address"
        },
        {
          "internalType": "uint256",
          "name": "amount",
          "type": "uint256"
        }
      ],
      "name": "approve",
      "outputs": [
        {
          "internalType": "bool",
          "name": "",
          "type": "bool"
        }
      ],
      "stateMutability": "nonpayable",
      "type": "function"
    },
    {
      "inputs": [
        {
          "internalType": "address",
          "name": "account",
          "type": "address"
        }
      ],
      "name": "balanceOf",
      "outputs": [
        {
          "internalType": "uint256",
          "name": "",
          "type": "uint256"
        }
      ],
      "stateMutability": "view",
      "type": "function"
    },
    {
      "inputs": [
        {
          "internalType": "uint256",
          "name": "amount",
          "type": "uint256"
        }
      ],
      "name": "burn",
      "outputs": [
        {
          "internalType": "bool",
          "name": "",
          "type": "bool"
        }
      ],
      "stateMutability": "nonpayable",
      "type": "function"
    },
    {
      "inputs": [
        {
          "internalType": "uint256",
          "name": "newLimit",
          "type": "uint256"
        }
      ],
      "name": "changeMaxHoldLimit",
      "outputs": [
        {
          "internalType": "bool",
          "name": "",
          "type": "bool"
        }
      ],
      "stateMutability": "nonpayable",
      "type": "function"
    },
    {
      "inputs": [
        {
          "internalType": "uint256",
          "name": "newLimit",
          "type": "uint256"
        }
      ],
      "name": "changeMaxTxLimit",
      "outputs": [
        {
          "internalType": "bool",
          "name": "",
          "type": "bool"
        }
      ],
      "stateMutability": "nonpayable",
      "type": "function"
    },
    {
      "inputs": [],
      "name": "decimals",
      "outputs": [
        {
          "internalType": "uint256",
          "name": "",
          "type": "uint256"
        }
      ],
      "stateMutability": "view",
      "type": "function"
    },
    {
      "inputs": [
        {
          "internalType": "address",
          "name": "account",
          "type": "address"
        }
      ],
      "name": "excludeFromFee",
      "outputs": [
        {
          "internalType": "bool",
          "name": "",
          "type": "bool"
        }
      ],
      "stateMutability": "nonpayable",
      "type": "function"
    },
    {
      "inputs": [
        {
          "internalType": "address",
          "name": "account",
          "type": "address"
        }
      ],
      "name": "excludeFromTxLimit",
      "outputs": [
        {
          "internalType": "bool",
          "name": "",
          "type": "bool"
        }
      ],
      "stateMutability": "nonpayable",
      "type": "function"
    },
    {
      "inputs": [
        {
          "internalType": "address",
          "name": "account",
          "type": "address"
        }
      ],
      "name": "excludefromHoldLimit",
      "outputs": [
        {
          "internalType": "bool",
          "name": "",
          "type": "bool"
        }
      ],
      "stateMutability": "nonpayable",
      "type": "function"
    },
    {
      "inputs": [],
      "name": "fee1",
      "outputs": [
        {
          "internalType": "uint256",
          "name": "",
          "type": "uint256"
        }
      ],
      "stateMutability": "view",
      "type": "function"
    },
    {
      "inputs": [],
      "name": "fee2",
      "outputs": [
        {
          "internalType": "uint256",
          "name": "",
          "type": "uint256"
        }
      ],
      "stateMutability": "view",
      "type": "function"
    },
    {
      "inputs": [],
      "name": "fee3",
      "outputs": [
        {
          "internalType": "uint256",
          "name": "",
          "type": "uint256"
        }
      ],
      "stateMutability": "view",
      "type": "function"
    },
    {
      "inputs": [
        {
          "internalType": "address",
          "name": "account",
          "type": "address"
        }
      ],
      "name": "includeInFee",
      "outputs": [
        {
          "internalType": "bool",
          "name": "",
          "type": "bool"
        }
      ],
      "stateMutability": "nonpayable",
      "type": "function"
    },
    {
      "inputs": [
        {
          "internalType": "address",
          "name": "account",
          "type": "address"
        }
      ],
      "name": "includeInHoldLimit",
      "outputs": [
        {
          "internalType": "bool",
          "name": "",
          "type": "bool"
        }
      ],
      "stateMutability": "nonpayable",
      "type": "function"
    },
    {
      "inputs": [
        {
          "internalType": "address",
          "name": "account",
          "type": "address"
        }
      ],
      "name": "includeInTxLimit",
      "outputs": [
        {
          "internalType": "bool",
          "name": "",
          "type": "bool"
        }
      ],
      "stateMutability": "nonpayable",
      "type": "function"
    },
    {
      "inputs": [
        {
          "internalType": "address",
          "name": "account",
          "type": "address"
        }
      ],
      "name": "isApproved",
      "outputs": [
        {
          "internalType": "bool",
          "name": "",
          "type": "bool"
        }
      ],
      "stateMutability": "view",
      "type": "function"
    },
    {
      "inputs": [
        {
          "internalType": "address",
          "name": "account",
          "type": "address"
        }
      ],
      "name": "isExcludedFromFee",
      "outputs": [
        {
          "internalType": "bool",
          "name": "",
          "type": "bool"
        }
      ],
      "stateMutability": "view",
      "type": "function"
    },
    {
      "inputs": [
        {
          "internalType": "address",
          "name": "account",
          "type": "address"
        }
      ],
      "name": "isExcludedFromHoldLimit",
      "outputs": [
        {
          "internalType": "bool",
          "name": "",
          "type": "bool"
        }
      ],
      "stateMutability": "view",
      "type": "function"
    },
    {
      "inputs": [
        {
          "internalType": "address",
          "name": "account",
          "type": "address"
        }
      ],
      "name": "isExcludedFromTxLimit",
      "outputs": [
        {
          "internalType": "bool",
          "name": "",
          "type": "bool"
        }
      ],
      "stateMutability": "view",
      "type": "function"
    },
    {
      "inputs": [],
      "name": "lockSwap",
      "outputs": [
        {
          "internalType": "bool",
          "name": "",
          "type": "bool"
        }
      ],
      "stateMutability": "nonpayable",
      "type": "function"
    },
    {
      "inputs": [],
      "name": "name",
      "outputs": [
        {
          "internalType": "string",
          "name": "",
          "type": "string"
        }
      ],
      "stateMutability": "view",
      "type": "function"
    },
    {
      "inputs": [],
      "name": "owner",
      "outputs": [
        {
          "internalType": "address",
          "name": "",
          "type": "address"
        }
      ],
      "stateMutability": "view",
      "type": "function"
    },
    {
      "inputs": [
        {
          "internalType": "uint256",
          "name": "_fee1",
          "type": "uint256"
        },
        {
          "internalType": "uint256",
          "name": "_fee2",
          "type": "uint256"
        },
        {
          "internalType": "uint256",
          "name": "_fee3",
          "type": "uint256"
        }
      ],
      "name": "setFee",
      "outputs": [
        {
          "internalType": "bool",
          "name": "",
          "type": "bool"
        }
      ],
      "stateMutability": "nonpayable",
      "type": "function"
    },
    {
      "inputs": [
        {
          "internalType": "address",
          "name": "_address1",
          "type": "address"
        },
        {
          "internalType": "address",
          "name": "_address2",
          "type": "address"
        },
        {
          "internalType": "address",
          "name": "_address3",
          "type": "address"
        }
      ],
      "name": "setFeeAddress",
      "outputs": [
        {
          "internalType": "bool",
          "name": "",
          "type": "bool"
        }
      ],
      "stateMutability": "nonpayable",
      "type": "function"
    },
    {
      "inputs": [],
      "name": "symbol",
      "outputs": [
        {
          "internalType": "string",
          "name": "",
          "type": "string"
        }
      ],
      "stateMutability": "view",
      "type": "function"
    },
    {
      "inputs": [],
      "name": "totalSupply",
      "outputs": [
        {
          "internalType": "uint256",
          "name": "",
          "type": "uint256"
        }
      ],
      "stateMutability": "view",
      "type": "function"
    },
    {
      "inputs": [],
      "name": "totalUnburntSupply",
      "outputs": [
        {
          "internalType": "uint256",
          "name": "",
          "type": "uint256"
        }
      ],
      "stateMutability": "view",
      "type": "function"
    },
    {
      "inputs": [
        {
          "internalType": "address",
          "name": "recipient",
          "type": "address"
        },
        {
          "internalType": "uint256",
          "name": "amount",
          "type": "uint256"
        }
      ],
      "name": "transfer",
      "outputs": [
        {
          "internalType": "bool",
          "name": "",
          "type": "bool"
        }
      ],
      "stateMutability": "nonpayable",
      "type": "function"
    },
    {
      "inputs": [
        {
          "internalType": "address",
          "name": "sender",
          "type": "address"
        },
        {
          "internalType": "address",
          "name": "recipient",
          "type": "address"
        },
        {
          "internalType": "uint256",
          "name": "amount",
          "type": "uint256"
        }
      ],
      "name": "transferFrom",
      "outputs": [
        {
          "internalType": "bool",
          "name": "",
          "type": "bool"
        }
      ],
      "stateMutability": "nonpayable",
      "type": "function"
    },
    {
      "inputs": [
        {
          "internalType": "address",
          "name": "newOwner",
          "type": "address"
        }
      ],
      "name": "transferOwnership",
      "outputs": [
        {
          "internalType": "bool",
          "name": "",
          "type": "bool"
        }
      ],
      "stateMutability": "nonpayable",
      "type": "function"
    },
    {
      "inputs": [],
      "name": "unlockSwap",
      "outputs": [
        {
          "internalType": "bool",
          "name": "",
          "type": "bool"
        }
      ],
      "stateMutability": "nonpayable",
      "type": "function"
    }
  ],
  "bytecode": "0x60806040523480156200001157600080fd5b50604051620022e2380380620022e28339810160408190526200003491620005c7565b6200004889670de0b6b3a7640000620006ac565b600a819055336000818152600c6020908152604080832085905551938452919290917fddf252ad1be2c89b69c2b068fc378daa952ba7f163c4a11628f55a4df523b3ef910160405180910390a3600580546001600160a01b03808b166001600160a01b03199283161790925560068054928a169282169290921790915560078054909116905560028690556003859055600484905560088290556000620000f08c8262000767565b506001620000ff8b8262000767565b506009839055600b80546001600160a81b03191633610100810260ff1916919091178315151790915562000133906200015d565b506200013f33620002c1565b506200014b33620003c4565b50505050505050505050505062000833565b600062000177600b5461010090046001600160a01b031690565b6001600160a01b0316336001600160a01b031614620001f45760405162461bcd60e51b815260206004820152602e60248201527f4f6e6c7920746865206f776e65722063616e206578636c75646520616464726560448201526d737365732066726f6d206665657360901b60648201526084015b60405180910390fd5b6001600160a01b0382166000908152600e602052604090205460ff16156200025f5760405162461bcd60e51b815260206004820152601860248201527f6163636f756e7420616c7265616479206578636c7564656400000000000000006044820152606401620001eb565b6001600160a01b0382166000818152600e6020908152604091829020805460ff1916600190811790915591519182527fd5144d2a6c8ff9b87b7a40852df5102cab2ce561c06b56cc6fe7ccf1fa7f8c2d910160405180910390a2506001919050565b6000620002db600b5461010090046001600160a01b031690565b6001600160a01b0316336001600160a01b0316146200033d5760405162461bcd60e51b815260206004820152601360248201527f4f6e6c79204f776e65722046756e6374696f6e000000000000000000000000006044820152606401620001eb565b6001600160a01b0382166000908152600f602052604090205460ff16156200039b5760405162461bcd60e51b815260206004820152601060248201526f105b1c9958591e48115e18db1d59195960821b6044820152606401620001eb565b506001600160a01b03166000908152600f60205260409020805460ff1916600190811790915590565b6000620003de600b5461010090046001600160a01b031690565b6001600160a01b0316336001600160a01b031614620004405760405162461bcd60e51b815260206004820152601d60248201527f4f6e6c79204f776e657220497320616c6c6f77656420746f2063616c6c0000006044820152606401620001eb565b6001600160a01b03821660009081526010602052604090205460ff1615620004ab5760405162461bcd60e51b815260206004820152601860248201527f6163636f756e7420616c7265616479206578636c7564656400000000000000006044820152606401620001eb565b506001600160a01b03166000908152601060205260409020805460ff1916600190811790915590565b634e487b7160e01b600052604160045260246000fd5b600082601f830112620004fc57600080fd5b81516001600160401b0380821115620005195762000519620004d4565b604051601f8301601f19908116603f01168101908282118183101715620005445762000544620004d4565b816040528381526020925086838588010111156200056157600080fd5b600091505b8382101562000585578582018301518183018401529082019062000566565b600093810190920192909252949350505050565b80516001600160a01b0381168114620005b157600080fd5b919050565b80518015158114620005b157600080fd5b60008060008060008060008060008060006101608c8e031215620005ea57600080fd5b8b516001600160401b038111156200060157600080fd5b6200060f8e828f01620004ea565b60208e0151909c5090506001600160401b038111156200062e57600080fd5b6200063c8e828f01620004ea565b9a505060408c015198506200065460608d0162000599565b97506200066460808d0162000599565b965060a08c0151955060c08c0151945060e08c015193506101008c015192506101208c015191506200069a6101408d01620005b6565b90509295989b509295989b9093969950565b8082028115828204841417620006d257634e487b7160e01b600052601160045260246000fd5b92915050565b600181811c90821680620006ed57607f821691505b6020821081036200070e57634e487b7160e01b600052602260045260246000fd5b50919050565b601f8211156200076257600081815260208120601f850160051c810160208610156200073d5750805b601f850160051c820191505b818110156200075e5782815560010162000749565b5050505b505050565b81516001600160401b03811115620007835762000783620004d4565b6200079b81620007948454620006d8565b8462000714565b602080601f831160018114620007d35760008415620007ba5750858301515b600019600386901b1c1916600185901b1785556200075e565b600085815260208120601f198616915b828110156200080457888601518255948401946001909101908401620007e3565b5085821015620008235787850151600019600388901b60f8161c191681555b5050505050600190811b01905550565b611a9f80620008436000396000f3fe608060405234801561001057600080fd5b50600436106101fb5760003560e01c80635eb043471161011a578063a30173bd116100ad578063c60982561161007c578063c609825614610452578063dbe04f0e1461045b578063dd62ed3e1461046e578063ea2f0b37146104a7578063f2fde38b146104ba57600080fd5b8063a30173bd146103ed578063a6d306e314610400578063a9059cbb14610413578063bf95793d1461042657600080fd5b80637fecc2a4116100e95780637fecc2a4146103ab57806385d30fc8146103b35780638da5cb5b146103bc57806395d89b41146103e557600080fd5b80635eb0434714610349578063673448dd1461035c5780636b099d6e1461036f57806370a082311461038257600080fd5b806323b872dd1161019257806342966c681161016157806342966c68146102e4578063437823ec146102f75780635342acb41461030a5780635b65b9ab1461033657600080fd5b806323b872dd146102ad578063313ce567146102c05780633178ad0f146102c857806339f73a48146102db57600080fd5b8063189b7c70116101ce578063189b7c70146102665780631a4f100b146102715780631a883a7a1461029d5780631ceed855146102a557600080fd5b806306fdde0314610200578063095ea7b31461021e5780630f015d641461024157806318160ddd14610254575b600080fd5b6102086104cd565b60405161021591906117c6565b60405180910390f35b61023161022c366004611830565b61055b565b6040519015158152602001610215565b61023161024f36600461185a565b6105c8565b600a545b604051908152602001610215565b600b5460ff16610231565b61023161027f36600461185a565b6001600160a01b03166000908152600f602052604090205460ff1690565b6102586106bc565b6102316106e5565b6102316102bb366004611875565b6107a4565b610258601281565b6102316102d636600461185a565b610963565b61025860035481565b6102316102f23660046118b1565b610a52565b61023161030536600461185a565b610b39565b61023161031836600461185a565b6001600160a01b03166000908152600e602052604090205460ff1690565b6102316103443660046118ca565b610c44565b6102316103573660046118b1565b610d1d565b61023161036a36600461185a565b610d88565b61023161037d3660046118b1565b610ddc565b61025861039036600461185a565b6001600160a01b03166000908152600c602052604090205490565b610231610e47565b61025860045481565b600b5461010090046001600160a01b03166040516001600160a01b039091168152602001610215565b610208610efd565b6102316103fb3660046118f6565b610f0a565b61023161040e36600461185a565b610fcc565b610231610421366004611830565b6110cd565b61023161043436600461185a565b6001600160a01b031660009081526010602052604090205460ff1690565b61025860025481565b61023161046936600461185a565b6111ce565b61025861047c366004611939565b6001600160a01b039182166000908152600d6020908152604080832093909416825291909152205490565b6102316104b536600461185a565b6112cf565b6102316104c836600461185a565b6113ca565b600080546104da9061196c565b80601f01602080910402602001604051908101604052809291908181526020018280546105069061196c565b80156105535780601f1061052857610100808354040283529160200191610553565b820191906000526020600020905b81548152906001019060200180831161053657829003601f168201915b505050505081565b336000818152600d602090815260408083206001600160a01b038716808552925280832085905551919290917f8c5be1e5ebec7d5bd14f71427d1e84f3dd0314c0f7b2291e5b200ac8c7c3b925906105b69086815260200190565b60405180910390a35060015b92915050565b600b5460009061010090046001600160a01b03166001600160a01b0316336001600160a01b0316146106375760405162461bcd60e51b815260206004820152601360248201527227b7363c9027bbb732b910233ab731ba34b7b760691b60448201526064015b60405180910390fd5b6001600160a01b0382166000908152600f602052604090205460ff16156106935760405162461bcd60e51b815260206004820152601060248201526f105b1c9958591e48115e18db1d59195960821b604482015260640161062e565b506001600160a01b03166000908152600f60205260409020805460ff1916600190811790915590565b6007546001600160a01b03166000908152600c6020526040812054600a5482916105c2916119bc565b600b5460009061010090046001600160a01b031633146107475760405162461bcd60e51b815260206004820152601d60248201527f43616e74204c6f636b202c206e6565647320746f206265206f776e6572000000604482015260640161062e565b600b5460ff161561075757600080fd5b600b805460ff1916600117905560408051600081524260208201527f1982c9b4b0d332fa3711b056d793e830e6553ae578860eff0dce6e04e33f4db991015b60405180910390a150600190565b6001600160a01b0383166000908152600d60209081526040808320338452909152812054828110156108295760405162461bcd60e51b815260206004820152602860248201527f45524332303a207472616e7366657220616d6f756e74206578636565647320616044820152676c6c6f77616e636560c01b606482015260840161062e565b6108338184611483565b6001600160a01b0386166000908152600d60209081526040808320338452825280832093909355600e9052205460ff1661094d57600061088a6103e86108846002548761149690919063ffffffff16565b906114a2565b905060006108a96103e86108846003548861149690919063ffffffff16565b905060006108c86103e86108846004548961149690919063ffffffff16565b905060006108e0826108da86866114ae565b906114ae565b905060006108ee8883611483565b90506108fb8a8a836114ba565b600554610913908b906001600160a01b0316876114ba565b60065461092b908b906001600160a01b0316866114ba565b600754610943908b906001600160a01b0316856114ba565b5050505050610958565b6109588585856114ba565b506001949350505050565b600b5460009061010090046001600160a01b03166001600160a01b0316336001600160a01b0316146109cd5760405162461bcd60e51b815260206004820152601360248201527227b7363c9027bbb732b910233ab731ba34b7b760691b604482015260640161062e565b6001600160a01b0382166000908152600f602052604090205460ff161515600114610a2d5760405162461bcd60e51b815260206004820152601060248201526f105b1c9958591e48125b98db1d59195960821b604482015260640161062e565b506001600160a01b03166000908152600f60205260409020805460ff19169055600190565b336000908152600c6020526040812054821115610abc5760405162461bcd60e51b815260206004820152602260248201527f45524332303a206275726e20616d6f756e7420657863656564732062616c616e604482015261636560f01b606482015260840161062e565b336000908152600c602052604081208054849290610adb9084906119bc565b9250508190555081600a6000828254610af491906119bc565b909155505060405182815260009033907fddf252ad1be2c89b69c2b068fc378daa952ba7f163c4a11628f55a4df523b3ef9060200160405180910390a3506001919050565b600b5460009061010090046001600160a01b03166001600160a01b0316336001600160a01b031614610b7d5760405162461bcd60e51b815260040161062e906119cf565b6001600160a01b0382166000908152600e602052604090205460ff1615610be15760405162461bcd60e51b81526020600482015260186024820152771858d8dbdd5b9d08185b1c9958591e48195e18db1d59195960421b604482015260640161062e565b6001600160a01b0382166000818152600e6020908152604091829020805460ff1916600190811790915591519182527fd5144d2a6c8ff9b87b7a40852df5102cab2ce561c06b56cc6fe7ccf1fa7f8c2d91015b60405180910390a2506001919050565b600b5460009061010090046001600160a01b03166001600160a01b0316336001600160a01b031614610cb85760405162461bcd60e51b815260206004820152601e60248201527f4f6e6c7920746865206f776e65722063616e2073657420746865206665650000604482015260640161062e565b6002849055600383905560048290557f6e364b79bd7c090ae724326ac06e724940a9decd8475c1a2d6f67022ecfb78ad82610cf38587611a1d565b610cfd9190611a1d565b604080519182524260208301520160405180910390a15060019392505050565b600b5460009061010090046001600160a01b03163314610d7f5760405162461bcd60e51b815260206004820152601e60248201527f43616e74204368616e67652c206e6565647320746f206265206f776e65720000604482015260640161062e565b50600855600190565b6001600160a01b0381166000908152600d60205260408120819081610dbb600b546001600160a01b036101009091041690565b6001600160a01b031681526020810191909152604001600020541192915050565b600b5460009061010090046001600160a01b03163314610e3e5760405162461bcd60e51b815260206004820152601e60248201527f43616e74204368616e67652c206e6565647320746f206265206f776e65720000604482015260640161062e565b50600955600190565b600b5460009061010090046001600160a01b03163314610ea95760405162461bcd60e51b815260206004820152601d60248201527f43616e74204c6f636b202c206e6565647320746f206265206f776e6572000000604482015260640161062e565b600b5460ff161515600114610ebd57600080fd5b600b805460ff1916905560408051600181524260208201527f1982c9b4b0d332fa3711b056d793e830e6553ae578860eff0dce6e04e33f4db99101610796565b600180546104da9061196c565b600b5460009061010090046001600160a01b03166001600160a01b0316336001600160a01b031614610f895760405162461bcd60e51b815260206004820152602260248201527f4f6e6c7920746865206f776e65722063616e2073657420746865206164647265604482015261737360f01b606482015260840161062e565b50600580546001600160a01b039485166001600160a01b031991821617909155600680549385169382169390931790925560078054919093169116179055600190565b600b5460009061010090046001600160a01b03166001600160a01b0316336001600160a01b0316146110405760405162461bcd60e51b815260206004820152601d60248201527f4f6e6c79204f776e657220497320616c6c6f77656420746f2063616c6c000000604482015260640161062e565b6001600160a01b03821660009081526010602052604090205460ff1615156001146110a85760405162461bcd60e51b81526020600482015260186024820152771858d8dbdd5b9d08185b1c9958591e481a5b98db1d59195960421b604482015260640161062e565b506001600160a01b03166000908152601060205260409020805460ff19169055600190565b336000908152600e602052604081205460ff166111ba5760006111016127106108846002548661149690919063ffffffff16565b905060006111206127106108846003548761149690919063ffffffff16565b9050600061113f6127106108846004548861149690919063ffffffff16565b90506000611151826108da86866114ae565b9050600061115f8783611483565b905061116c3389836114ba565b6005546111849033906001600160a01b0316876114ba565b60065461119c9033906001600160a01b0316866114ba565b6007546111b49033906001600160a01b0316856114ba565b50505050505b6111c53384846114ba565b50600192915050565b600b5460009061010090046001600160a01b03166001600160a01b0316336001600160a01b0316146112425760405162461bcd60e51b815260206004820152601d60248201527f4f6e6c79204f776e657220497320616c6c6f77656420746f2063616c6c000000604482015260640161062e565b6001600160a01b03821660009081526010602052604090205460ff16156112a65760405162461bcd60e51b81526020600482015260186024820152771858d8dbdd5b9d08185b1c9958591e48195e18db1d59195960421b604482015260640161062e565b506001600160a01b03166000908152601060205260409020805460ff1916600190811790915590565b600b5460009061010090046001600160a01b03166001600160a01b0316336001600160a01b0316146113135760405162461bcd60e51b815260040161062e906119cf565b6001600160a01b0382166000908152600e602052604090205460ff16151560011461137b5760405162461bcd60e51b81526020600482015260186024820152771858d8dbdd5b9d08185b1c9958591e481a5b98db1d59195960421b604482015260640161062e565b6001600160a01b0382166000818152600e60209081526040808320805460ff19169055519182527fd5144d2a6c8ff9b87b7a40852df5102cab2ce561c06b56cc6fe7ccf1fa7f8c2d9101610c34565b600b5460009061010090046001600160a01b031633146114245760405162461bcd60e51b81526020600482015260156024820152744f6e6c794f776e65722063616e20646f207468697360581b604482015260640161062e565b600b80546001600160a01b03848116610100818102610100600160a81b031985161790945560405193909204169182907fa500e382aff70c8cb83755dfb49b5d59ff9aa6eefb54ab474986f38be5f08ae1906105b69042815260200190565b600061148f82846119bc565b9392505050565b600061148f8284611a30565b600061148f8284611a47565b600061148f8284611a1d565b600b5460ff161561152a5760405162461bcd60e51b815260206004820152603460248201527f5472616e73616369746f6e73206172652074656d706f726172696c792064697360448201527330b13632b2103337b9103a3434b9903a37b5b2b760611b606482015260840161062e565b60006115486064610884600854600a5461149690919063ffffffff16565b905060006115686064610884600954600a5461149690919063ffffffff16565b3360009081526010602052604090205490915060ff1661160257818311156116025760405162461bcd60e51b815260206004820152604160248201527f416d6f756e74204578636565647320416c6c6f776564205472616e736163746960448201527f6f6e204c696d69742c205265747279206f7220676574205065726d697373696f6064820152603760f91b608482015260a40161062e565b336000908152600f602052604090205460ff166116b1576001600160a01b0384166000908152600c6020526040902054819061163e90856114ae565b106116b15760405162461bcd60e51b815260206004820152603e60248201527f5468652052656369657665722042616c616e636520697320616c72656164792060448201527f6d6178206f66207768617420697320616c6c6f77656420746f20686f6c640000606482015260840161062e565b6001600160a01b0385166000908152600c6020526040902054838110156117295760405162461bcd60e51b815260206004820152602660248201527f45524332303a207472616e7366657220616d6f756e7420657863656564732062604482015265616c616e636560d01b606482015260840161062e565b6117338185611483565b6001600160a01b038088166000908152600c6020526040808220939093559087168152205461176290856114ae565b6001600160a01b038087166000818152600c602052604090819020939093559151908816907fddf252ad1be2c89b69c2b068fc378daa952ba7f163c4a11628f55a4df523b3ef906117b69088815260200190565b60405180910390a3505050505050565b600060208083528351808285015260005b818110156117f3578581018301518582016040015282016117d7565b506000604082860101526040601f19601f8301168501019250505092915050565b80356001600160a01b038116811461182b57600080fd5b919050565b6000806040838503121561184357600080fd5b61184c83611814565b946020939093013593505050565b60006020828403121561186c57600080fd5b61148f82611814565b60008060006060848603121561188a57600080fd5b61189384611814565b92506118a160208501611814565b9150604084013590509250925092565b6000602082840312156118c357600080fd5b5035919050565b6000806000606084860312156118df57600080fd5b505081359360208301359350604090920135919050565b60008060006060848603121561190b57600080fd5b61191484611814565b925061192260208501611814565b915061193060408501611814565b90509250925092565b6000806040838503121561194c57600080fd5b61195583611814565b915061196360208401611814565b90509250929050565b600181811c9082168061198057607f821691505b6020821081036119a057634e487b7160e01b600052602260045260246000fd5b50919050565b634e487b7160e01b600052601160045260246000fd5b818103818111156105c2576105c26119a6565b6020808252602e908201527f4f6e6c7920746865206f776e65722063616e206578636c75646520616464726560408201526d737365732066726f6d206665657360901b606082015260800190565b808201808211156105c2576105c26119a6565b80820281158282048414176105c2576105c26119a6565b600082611a6457634e487b7160e01b600052601260045260246000fd5b50049056fea26469706673582212204800f9ae6f2cf066f27492aaf22d562890b48e8b9ce2c9303ab4e09b5d775bd864736f6c63430008110033",
  "linkReferences": {},
  "deployedLinkReferences": {}
}